:020000040000FA
:06000000006A1DEF03F091
:020008001200E4
:08001800120004C0E9FF05C05D
:10002000EAFFEE6EE9CF04F0EACF05F0D8801AEFD0
:1000300003F01A6E10C0EAFF0E50120FE96E0C505A
:10004000EF120EC0E9FFEF1406A00C1810E01A66BC
:1000500007D004040DE3640EA3EC01F0045008D0B3
:100060001A28E86804E01A2C02D0055001D0071EB7
:1000700007321AEF03F00F01ABB2AB98AB88065012
:10008000126E0750136E166A176A04009EBA13D0D8
:10009000E86A1606175AF9E21206135A0EE37C0EA6
:1000A000166E000E176EF1D70F01ABB2AB98AB888E
:1000B00004009EAAFDD7AE50D8801AEF03F01B6A49
:1000C0001A6E018E270E176E100E0CD8030E176EC7
:1000D000E80E08D8176A640E05D8176A0A0E02D807
:1000E0001A500FD0166E1B50136E1A50126E146AEF
:1000F000156A186A196A4EEC02F0E866019E01BEA4
:100100001200300F01D0E9500F0104009EA8FDD766
:10011000AD6ED8801AEF03F0008C00AC009CD96E55
:100120000350D89020E0032E03D000BC05D800ACCB
:1001300005D819E2DE6EF4D7008A00AA009A00B64C
:1001400003D000864DD834E2080E176E5DD81636FF
:10015000172EFCD700AA3BD865D85ED800BA28D89D
:100160002ED81650D8901AEF03F0008C00AC009CEB
:10017000D96E030603E200BC1BD018D0DE5004D8B1
:1001800015E2F7D7008A00AA009A00B405D0FE0B4A
:10019000016E0084D8900AD000B805D01E6E008889
:1001A0001FD806E21E5023D803E200AA1AEF03F07C
:1001B0000ED838D800940098009601D8F7D710C010
:1001C000EAFF0E3CE96EE9880C50EC1208D010C032
:1001D000EAFF0EC0E9FF0C1CEE16E988EC161200CF
:1001E000EEDF20D8F4DF18D8015000B60109166EF2
:1001F000080E176E1636D8B0E2DFD8A0E8DF12D8A6
:100200000BD8172EF7D7DBDF0DD810C0EAFF0EC0D2
:10021000E9FF0C50EF14FF0F11C0EAFF0FC0E9FF18
:100220000D1CDAD711C0EAFF0F3CE96EE9880D50CA
:10023000CCD7D96E030602E21AEF03F0DE5014ECBD
:1002400003F0F8D75FD8019E0350D8B4018E0A0E90
:10025000026E3B0E196E9A0E186ECA0E176E000EC5
:1002600035D8050E196EF50E186EE10E176E000EDC
:100270002DD8196A980E186E960E176E800E26D815
:10028000196A0F0E186E420E176E400E1FD8196AAB
:10029000010E186E860E176EA00E18D8196A186A0D
:1002A000270E176E100E12D8196A186A030E176EF1
:1002B000E80E0CD8196A186A176A640E07D8196A0A
:1002C000186A176A0A0E02D81A500CD0166E1D5002
:1002D000156E1C50146E1B50136E1A50126E4EEC9D
:1002E00002F01250126E024E019E035003E0025CB7
:1002F000D8B012001250D8A4019E01BE1200300FD7
:1003000014EF03F01DAE1200E86A1A6C1B561C565F
:100310001D562D0E14EF03F07F6A7F807350744AD0
:10032000752A1AEF03F0E86A736E7F6A7F84550EB0
:100330007E6EAA0E7E6E7F827FB2FED77F94744A55
:10034000752A1AEF03F0176A186A196A166EE86AB6
:100350001606175A185A195AD8A01AEF03F0030EA6
:10036000136EDE0E02D8F3D7136AE90F126EFC0E7D
:1003700005E3000004001226FDE200001226130629
:10038000F9E212B000D012A202D000D00000120098
:1003900007EC02F008E01950156E1850146E175053
:1003A000136E1650126E12501200D8901236133679
:1003B00014361536FF0FF9E212501AEF03F0D890F9
:1003C0001532143213321232FF0FF9E212501AEFC3
:1003D00003F0166E020E26D0166E020E25D0166E93
:1003E000030E20D0166E030E1FD0166E010E18D00D
:1003F000166E010E17D0166E010E16D0166E060E72
:1004000011D0166E060E10D0166E040E09D0166EA0
:10041000040E0AD0166E050E05D0166E050E04D019
:10042000026E0FD0026E0AD0026E1950151815E632
:100430001950155C08E11850145C05E11750135C65
:1004400002E11650125C040ED8B0010ED8B4020EB0
:100450000214D8A4FF0E1AEF03F01550195CF3D75D
:10046000E866FF0E1214D8A4FF0E1AEF03F0121064
:10047000D8A4FF0E1AEF03F0216A15AE06D0217E34
:10048000E86A126C13561456155619AE08D0217E20
:10049000E86A166C17561856195601D0216A1A6A5E
:1004A0001B6A1C6A1D6A200E1E6E15341A361B3616
:1004B0001C361D3616501A5E17501B5A18501C5AFF
:1004C00019501D5A09E216501A2617501B221850AF
:1004D0001C2219501D22D8901236133614361536A8
:1004E0001E2EE3D721AE09D0E86A126C13561456BB
:1004F00015561A6C1B561C561D5612501AEF03F057
:1005000016501E02F3CF1AF0F4CF1BF017501F0243
:10051000F3CF1CF0F4CF1DF01E02F3501B26F45055
:100520001C22E86A1D2216501F02F3501B26F450AD
:100530001C22E86A1D2218501E02F3501C26F4509B
:100540001D2218501F02E86A126A1222F3501D265B
:10055000F450122216502002F3501C26F4501D2293
:10056000E86A136A1222132217502002F3501D2644
:10057000F4501222E86A132218502002F350122677
:10058000F450132219501F02F3501226F450132274
:1005900019502002E86A146A1422F3501326F4500A
:1005A000142219501E02F3501D26F4501222E86A3C
:1005B0001322142219502102F4CF15F0F3501426FF
:1005C000E86A152216502102F3501D26F45012221B
:1005D000E86A13221422152217502102F350122622
:1005E000F4501322E86A1422152218502102F35005
:1005F0001326F4501422E86A152221AE08D01650B2
:10060000125E1750135A1850145A1950155A19AE31
:1006100008D01E50125E1F50135A2050145A2150F9
:10062000155A1A501AEF03F0E96EFB6A0B50FA6E76
:100630000A50F96E0001040012000C0EAF6E200E7D
:10064000AC6E900EAB6E0F015D6B5C6B926A030E2D
:100650005B6FF19EFB0E936E870E946E9568F80E9D
:10066000966E0001726B6B6BA00E646FA80E656FC7
:10067000500E6A6FD00E766F99EF03F0F19CF19AED
:10068000D59CD58AD598D586D58ECD8ECD9CCD9A44
:10069000CD98CD96CD84CD92CD808288828A829667
:1006A000849284941200896B8A6B0D0E8B6F33ECED
:1006B00016F0836B846B0C0E856F010EAB6FAC6B09
:1006C000AD6BAE6B5D6A816B010E716F7B6B666BA0
:1006D0000A0E126E136A146A156A196A186A176A82
:1006E000020E56DE496E13C04AF09F6B960EA06F45
:1006F000E70EA16FA2699B6B6A0E9C6F180E9D6F2F
:100700009E6BB8EC36F0A76BA86BA96BAA6BAF6BAE
:10071000B06BB16BB26B8F6B906B916B926B200E69
:10072000B76F030EB86FB96BBA6B640E4B6E4C6A41
:1007300012000EEF16F0820E0E6E0F0E106E020EED
:100740000C6E820E0F6E0F0E116E010E0D6E6A5141
:10075000C4EC00F0FE0EC4EC00F0520EC4EC00F04D
:10076000280EC2EC00F0050EA3EC01F0820E0E6E16
:100770000F0E106E020E0C6E820E0F6E0F0E116EAB
:10078000010E0D6E6A51C4EC00F0FE0EC4EC00F0D8
:10079000530EC4EC00F0080EC2EC00F0050EA3EC02
:1007A00001F0DFEC14F012009AEC15F0820E0E6EE0
:1007B0000F0E106E020E0C6E820E0F6E0F0E116E6B
:1007C000010E0D6E6A51C4EC00F04D0EC4EC00F049
:1007D0006F0EC4EC00F0740EC4EC00F06F0EC4ECAD
:1007E00000F0720EC4EC00F0200EC4EC00F0440ED9
:1007F000C4EC00F0690EC4EC00F0730EC4EC00F021
:10080000610EC4EC00F0620EC4EC00F06C0EC4EC9F
:1008100000F0650EC4EC00F0640EC2EC00F0C2EC17
:1008200005F0F1EC15F0C3EC07F012009AEC15F0AE
:10083000820E0E6E0F0E106E020E0C6E820E0F6E7A
:100840000F0E116E010E0D6E6A51C4EC00F0200EF9
:10085000C4EC00F0200EC4EC00F04D0EC4EC00F02F
:10086000610EC4EC00F06E0EC4EC00F0750EC4EC2A
:1008700000F0610EC4EC00F06C0EC4EC00F0200E31
:10088000C4EC00F04F0EC4EC00F0700EC4EC00F0AD
:10089000650EC4EC00F0720EC4EC00F0610EC4EC06
:1008A00000F0740EC4EC00F0690EC4EC00F06F0EA2
:1008B000C4EC00F06E0EC4EC00F0200EC4EC00F0AE
:1008C000200EC2EC00F0C2EC05F0F1EC15F0820E47
:1008D0000E6E0F0E106E020E0C6E820E0F6E0F0E4D
:1008E000116E010E0D6E6A51C4EC00F03C0EC4ECAA
:1008F00000F03C0EC4EC00F02D0EC4EC00F0200E15
:10090000C4EC00F0200EC4EC00F0200EC4EC00F0AB
:10091000200EC4EC00F0200EC4EC00F0200EC4EC5D
:1009200000F0200EC4EC00F0200EC4EC00F0200E0D
:10093000C4EC00F0200EC4EC00F0200EC4EC00F07B
:10094000200EC4EC00F0200EC4EC00F0200EC4EC2D
:1009500000F02B0EC4EC00F03E0EC4EC00F03E0E96
:10096000C2EC00F012009AEC15F0820E0E6E0F0E23
:10097000106E020E0C6E820E0F6E0F0E116E010EB7
:100980000D6E6A51C4EC00F0200EC4EC00F0450E70
:10099000C4EC00F0780EC4EC00F0740EC4EC00F06F
:1009A000650EC4EC00F0720EC4EC00F06E0EC4ECE8
:1009B00000F0610EC4EC00F06C0EC4EC00F0200EF0
:1009C000C4EC00F04F0EC4EC00F0700EC4EC00F06C
:1009D000650EC4EC00F0720EC4EC00F0610EC4ECC5
:1009E00000F0740EC4EC00F0690EC4EC00F06F0E61
:1009F000C4EC00F06E0EC4EC00F0200EC2EC00F06F
:100A0000C2EC05F0F1EC15F067EC09F012009AEC7D
:100A100015F0820E0E6E0F0E106E020E0C6E820E10
:100A20000F6E0F0E116E010E0D6E6A51C4EC00F0C8
:100A3000540EC4EC00F0720EC4EC00F0690EC4EC6D
:100A400000F0670EC4EC00F02E0EC4EC00F0200E97
:100A5000C4EC00F0470EC4EC00F06F0EC4EC00F0E4
:100A6000740EC4EC00F06F0EC4EC00F0200EC2EC6B
:100A700000F00B0E5F6E8FC0A3F090C0A4F091C089
:100A8000A5F092C0A6F06BEC09F09DEC14F0C2EC5E
:100A900005F0F1EC15F002EC07F012005E0E5E6E50
:100AA000820E0E6E0F0E106E020E0C6E820E0F6E08
:100AB0000F0E116E010E0D6E6A51C4EC00F0FE0EA9
:100AC000C4EC00F0450EC4EC00F05E50C2EC00F047
:100AD00057C055F058C056F0A5EC12F0F9EC14F0E0
:100AE0004BC055F04CC056F0A5EC12F021EC15F0BF
:100AF00021EC15F012009AEC15F0820E0E6E0F0E1E
:100B0000106E020E0C6E820E0F6E0F0E116E010E25
:100B10000D6E6A51C4EC00F0540EC4EC00F0690E86
:100B2000C4EC00F06D0EC4EC00F0650EC4EC00F0F7
:100B3000640EC4EC00F0200EC4EC00F0470EC4ECD0
:100B400000F06F0EC4EC00F0740EC4EC00F06F0EF9
:100B5000C4EC00F0200EC2EC00F00B0E5F6E8FC0F4
:100B6000A3F090C0A4F091C0A5F092C0A6F06BECE9
:100B700009F09DEC14F0C2EC05F0F1EC15F0CBECB3
:100B800005F01200B7EC15F014EC08F0D4EC15F0F9
:100B900067EC09F0120095EC07F021EC15F0F9EC88
:100BA00014F021EC15F0C8EC07F09DEC14F01200E5
:100BB000B7C0A3F0B8C0A4F0B9C0A5F0BAC0A6F001
:100BC0006BEC09F012009AEC15F0820E0E6E0F0E0F
:100BD000106E020E0C6E820E0F6E0F0E116E010E55
:100BE0000D6E6A51C4EC00F0540EC4EC00F0720EAD
:100BF000C4EC00F0690EC4EC00F0670EC4EC00F029
:100C00002E0EC4EC00F0200EC4EC00F04D0EC4EC2F
:100C100000F06F0EC4EC00F0760EC4EC00F0650E30
:100C2000C4EC00F0200EC2EC00F00B0E5F6EC0DFD3
:100C30009DEC14F0A7DFF1EC15F002EC07F01200C8
:100C40009AEC15F0820E0E6E0F0E106E020E0C6EE8
:100C5000820E0F6E0F0E116E010E0D6E6A51C4ECF6
:100C600000F0540EC4EC00F0690EC4EC00F06D0E00
:100C7000C4EC00F0650EC4EC00F0640EC4EC00F0AF
:100C8000200EC4EC00F04D0EC4EC00F06F0EC4EC6E
:100C900000F0760EC4EC00F0650EC4EC00F0200EFF
:100CA000C2EC00F00B0E5F6E83DF9DEC14F06ADF88
:100CB000F1EC15F070DF12009AEC15F0820E0E6E5A
:100CC0000F0E106E020E0C6E820E0F6E0F0E116E56
:100CD000010E0D6E6A51C4EC00F0200EC4EC00F061
:100CE000200EC4EC00F0200EC4EC00F0200EC4EC8A
:100CF00000F0530EC4EC00F0740EC4EC00F0610E72
:100D0000C4EC00F0740EC4EC00F0650EC4EC00F00E
:100D1000200EC4EC00F0520EC4EC00F06F0EC4ECD8
:100D200000F0740EC4EC00F0610EC4EC00F0740E20
:100D3000C4EC00F0650EC4EC00F0200EC4EC00F032
:100D4000200EC4EC00F0200EC4EC00F0200EC2EC2B
:100D500000F018DFF1EC15F067EC09F012009AECE6
:100D600015F0820E0E6E0F0E106E020E0C6E820EBD
:100D70000F6E0F0E116E010E0D6E6A51C4EC00F075
:100D8000200EC4EC00F0540EC4EC00F0720EC4EC63
:100D900000F0690EC4EC00F0670EC4EC00F0670EC2
:100DA000C4EC00F0650EC4EC00F0720EC4EC00F070
:100DB000650EC4EC00F0640EC4EC00F0200EC4EC30
:100DC00000F0530EC4EC00F0680EC4EC00F0750E99
:100DD000C4EC00F0740EC4EC00F0740EC4EC00F02F
:100DE000650EC4EC00F0720EC4EC00F0200EC4ECF2
:100DF00000F0200EC2EC00F0C5DEF1EC15F002ECC4
:100E000007F01200820E0E6E0F0E106E020E0C6EA8
:100E1000820E0F6E0F0E116E010E0D6E6A51C4EC34
:100E200000F0540EC4EC00F0720EC4EC00F0690E39
:100E3000C4EC00F0670EC4EC00F0670EC4EC00F0E8
:100E4000650EC4EC00F0720EC4EC00F0730EC4EC3E
:100E500000F03A0EC4EC00F0200EC2EC00F00A0ED6
:100E60005F6E57C055F058C056F0A5EC12F0F9EC83
:100E700014F04BC055F04CC056F0A5EC12F09DECB0
:100E800014F012009AEC15F0820E0E6E0F0E106E1A
:100E9000020E0C6E820E0F6E0F0E116E010E0D6E95
:100EA0006A51C4EC00F0200EC4EC00F0200EC4EC3B
:100EB00000F0200EC4EC00F0530EC4EC00F0740EF1
:100EC000C4EC00F0610EC4EC00F0740EC4EC00F051
:100ED000650EC4EC00F0200EC4EC00F0530EC4EC20
:100EE00000F0680EC4EC00F0750EC4EC00F0740E57
:100EF000C4EC00F0740EC4EC00F0650EC4EC00F01D
:100F0000720EC4EC00F0200EC4EC00F0200EC4EC15
:100F100000F0200EC4EC00F0200EC2EC00F032DE37
:100F2000F1EC15F067EC09F012008BC055F0566A31
:100F3000A5EC12F049EC15F08AC055F0566A55C080
:100F400012F056C013F0176A0A0EEFEC01F0D8A4A5
:100F5000ACEF07F0FBEC07F0A5EC12F049EC15F054
:100F600089C055F0566A55C012F056C013F0176A82
:100F70000A0EEFEC01F0D8A4C0EF07F0FBEC07F08D
:100F8000A5EC12F012005F6AD0DF9DEC14F01200A5
:100F900085C055F0566AA5EC12F049EC15F084C0F6
:100FA00055F0566A55C012F056C013F0176A0A0E73
:100FB000EFEC01F0D8A4DFEF07F0FBEC07F0A5ECB5
:100FC00012F049EC15F083C055F0566A55C012F086
:100FD00056C013F0176A0A0EEFEC01F0D8A4F3EF35
:100FE00007F0FBEC07F0A5EC12F012005F6AD0DF0F
:100FF0009DEC14F01200820E0E6E0F0E106E020E9B
:101000000C6E820E0F6E0F0E116E010E0D6E6A5178
:10101000C4EC00F0300EC2EC00F05F2A1200B7EC16
:1010200015F014EC08F012007C51665DD8A4E86855
:10103000226EBBC012F0BCC013F0BDC014F0BEC025
:1010400015F0AAC019F0A9C018F0A8C017F0A75150
:101050000DEC02F0266E22C012F0265037EC02F0A2
:10106000266E276E286E296E040026502710281041
:101070002910D8B40EEF09F0B7EC15F00400665152
:101080000108D8A478EF08F0820E0E6E0F0E106ED5
:10109000020E0C6E820E0F6E0F0E116E010E0D6E93
:1010A0006A51C4EC00F0500EC4EC00F06F0EC4ECBA
:1010B00000F0730EC4EC00F0690EC4EC00F0740E86
:1010C000C4EC00F0690EC4EC00F06F0EC4EC00F04C
:1010D0006E0EC4EC00F02A0EC4EC00F03A0EC4EC24
:1010E00000F0200EC2EC00F00B0E5F6EA7EF08F0D0
:1010F000820E0E6E0F0E106E020E0C6E820E0F6EB2
:101100000F0E116E010E0D6E6A51C4EC00F0500E00
:10111000C4EC00F06F0EC4EC00F0730EC4EC00F0F1
:10112000690EC4EC00F0740EC4EC00F0690EC4EC5F
:1011300000F06F0EC4EC00F06E0EC4EC00F03A0E3E
:10114000C4EC00F0200EC2EC00F00A0E5F6EA7C0E7
:10115000A3F0A8C0A4F0A9C0A5F0AAC0A6F06BECAB
:1011600009F0100EA725226E000EA821236E000E96
:10117000A921246E000EAA21256E22C012F023C0E0
:1011800013F024C014F025C015F09EC019F09DC0C6
:1011900018F09CC017F09B51F2EC01F0226E100E7B
:1011A000A75D266E000EA859276E000EA959286E5D
:1011B000000EAA59296E26C012F027C013F028C0CD
:1011C00014F029C015F0A2C019F0A1C018F0A0C0F9
:1011D00017F09F5101EC02F0266E22C012F026504B
:1011E00037EC02F0266E276E286E296E040026501A
:1011F000271028102910D8B402EF09F021EC15F0BF
:1012000035EC15F09DEC14F0A7C0BBF0A8C0BCF005
:10121000A9C0BDF0AAC0BEF066C07CF01200BFC07D
:1012200012F0C0C013F0C1C014F0C2C015F0B2C0BB
:1012300019F0B1C018F0B0C017F0AF51ECEC01F0EC
:10124000D8A466EF09F0820E0E6E0F0E106E020E1D
:101250000C6E820E0F6E0F0E116E010E0D6E6A5126
:10126000C4EC00F0530EC4EC00F0650EC4EC00F0CA
:10127000740EC4EC00F0700EC4EC00F06F0EC4EC01
:1012800000F0690EC4EC00F06E0EC4EC00F0740EB9
:10129000C4EC00F03A0EC4EC00F0200EC2EC00F0FA
:1012A0000A0E5F6EAFC0A3F0B0C0A4F0B1C0A5F04D
:1012B000B2C0A6F06BEC09F09DEC14F0AFC0BFF02B
:1012C000B0C0C0F0B1C0C1F0B2C0C2F012005F6ADD
:1012D0009DEC14F01200A3C012F0A4C013F0A5C03E
:1012E00014F0A6C015F0100E166E176A186A196A67
:1012F0003CEC02F0976F13C098F014C099F015C041
:101300009AF097C012F098C013F099C014F09AC0E8
:1013100015F0196A186A176A000EF2EC01F0D8A4E9
:101320009BEF09F071EC15F09AAF05D0976DE86A64
:10133000985799579A5797C012F098C013F099C0D0
:1013400014F09AC015F0196A0F0E186E420E176E3F
:101350003F0E01EC02F0D8A4D0EF0CF097C012F0D1
:1013600098C013F099C014F09AC015F0400E166E94
:10137000420E176E0F0E186E196A3CEC02F06C6F7D
:10138000400E1E6E420E1F6E0F0E206E216A6CC044
:1013900016F0176A186A196A80EC02F0226E1BC0F8
:1013A00023F01CC024F01DC025F02250975D226E52
:1013B00023509859236E24509959246E25509A59D8
:1013C000256E22C012F023C013F024C014F025C0F3
:1013D00015F0A00E166E860E176E010E186E196AA5
:1013E0003CEC02F0696F400E1E6E420E1F6E0F0E37
:1013F000206E216A6CC016F0176A186A196A80ECB0
:1014000002F0226E1BC023F01CC024F01DC025F08A
:101410002250975D226E23509859236E245099597B
:10142000246E25509A59256EA00E1E6E860E1F6ED4
:10143000010E206E216A69C016F0176A186A196ACF
:1014400080EC02F0266E1BC027F01CC028F01DC0E7
:1014500029F02650225C266E27502358276E2850EC
:101460002458286E29502558296E26C012F027C00E
:1014700013F028C014F029C015F0100E166E270EB8
:10148000176E186A196A3CEC02F07F6F400E1E6EF0
:10149000420E1F6E0F0E206E216A6CC016F0176A86
:1014A000186A196A80EC02F0226E1BC023F01CC07F
:1014B00024F01DC025F02250975D226E23509859CC
:1014C000236E24509959246E25509A59256EA00EEA
:1014D0001E6E860E1F6E010E206E216A69C016F008
:1014E000176A186A196A80EC02F0266E1BC027F092
:1014F0001CC028F01DC029F02650225C266E275003
:101500002358276E28502458286E29502558296EB4
:10151000100E1E6E270E1F6E206A216A7FC016F005
:10152000176A186A196A80EC02F02A6E1BC02BF049
:101530001CC02CF01DC02DF02A50265C2A6E2B50AA
:1015400027582B6E2C5028582C6E2D5029582D6E54
:101550002AC012F02BC013F02CC014F02DC015F0CF
:10156000E80E166E030E176E186A196A3CEC02F04C
:10157000806F400E1E6E420E1F6E0F0E206E216A8F
:101580006CC016F0176A186A196A80EC02F0226EB5
:101590001BC023F01CC024F01DC025F02250975D15
:1015A000226E23509859236E24509959246E255049
:1015B0009A59256EA00E1E6E860E1F6E010E206EAD
:1015C000216A69C016F0176A186A196A80EC02F07D
:1015D000266E1BC027F01CC028F01DC029F0265025
:1015E000225C266E27502358276E28502458286ED8
:1015F00029502558296E100E1E6E270E1F6E206A68
:10160000216A7FC016F0176A186A196A80EC02F026
:101610002A6E1BC02BF01CC02CF01DC02DF02A50D0
:10162000265C2A6E2B5027582B6E2C5028582C6E77
:101630002D5029582D6EE80E1E6E030E1F6E206A67
:10164000216A80C016F0176A186A196A80EC02F0E5
:101650002E6E1BC02FF01CC030F01DC031F02E507C
:101660002A5C2E6E2F502B582F6E30502C58306E17
:1016700031502D58316E2EC012F02FC013F030C0F3
:1016800014F031C015F0640E166E176A186A196AE4
:101690003CEC02F0686F400E1E6E420E1F6E0F0E85
:1016A000206E216A6CC016F0176A186A196A80ECFD
:1016B00002F0226E1BC023F01CC024F01DC025F0D8
:1016C0002250975D226E23509859236E24509959C9
:1016D000246E25509A59256EA00E1E6E860E1F6E22
:1016E000010E206E216A69C016F0176A186A196A1D
:1016F00080EC02F0266E1BC027F01CC028F01DC035
:1017000029F02650225C266E27502358276E285039
:101710002458286E29502558296E100E1E6E270E4B
:101720001F6E206A216A7FC016F0176A186A196A4C
:1017300080EC02F02A6E1BC02BF01CC02CF01DC0E8
:101740002DF02A50265C2A6E2B5027582B6E2C50D9
:1017500028582C6E2D5029582D6EE80E1E6E030E43
:101760001F6E206A216A80C016F0176A186A196A0B
:1017700080EC02F02E6E1BC02FF01CC030F01DC09C
:1017800031F02E502A5C2E6E2F502B582F6E305079
:101790002C58306E31502D58316E640E1E6E1F6AFB
:1017A000206A216A68C016F0176A186A196A80EC04
:1017B00002F0326E1BC033F01CC034F01DC035F097
:1017C00032502E5C326E33502F58336E34503058B6
:1017D000346E35503158356E32C012F033C013F0CC
:1017E00034C014F035C015F00A0E166E176A186A68
:1017F000196A3CEC02F07E6F400E1E6E420E1F6EA8
:101800000F0E206E216A6CC016F0176A186A196AEA
:1018100080EC02F0226E1BC023F01CC024F01DC01F
:1018200025F02250975D226E23509859236E245044
:101830009959246E25509A59256EA00E1E6E860E5B
:101840001F6E010E206E216A69C016F0176A186AB1
:10185000196A80EC02F0266E1BC027F01CC028F02D
:101860001DC029F02650225C266E27502358276E73
:1018700028502458286E29502558296E100E1E6EA7
:10188000270E1F6E206A216A7FC016F0176A186A39
:10189000196A80EC02F02A6E1BC02BF01CC02CF0E1
:1018A0001DC02DF02A50265C2A6E2B5027582B6E17
:1018B0002C5028582C6E2D5029582D6EE80E1E6E77
:1018C000030E1F6E206A216A80C016F0176A186A1C
:1018D000196A80EC02F02E6E1BC02FF01CC030F095
:1018E0001DC031F02E502A5C2E6E2F502B582F6EBB
:1018F00030502C58306E31502D58316E640E1E6EA3
:101900001F6A206A216A68C016F0176A186A196A85
:1019100080EC02F0326E1BC033F01CC034F01DC0EE
:1019200035F032502E5C326E33502F58336E3450B7
:101930003058346E35503158356E0A0E1E6E1F6A9F
:10194000206A216A7EC016F0176A186A196A80EC4C
:1019500002F0366E1BC037F01CC038F01DC039F0E5
:101960003650325C706F6CC062F0A9EC14F069C044
:1019700062F0A9EC14F07FC062F0A9EC14F080C012
:1019800062F0A9EC14F068C062F0A9EC14F07EC01B
:1019900062F0A9EC14F070C062F0A9EC14F012002F
:1019A00097C012F098C013F099C014F09AC015F0C7
:1019B000196A010E186E860E176E9F0E01EC02F06A
:1019C000D8A429EF0FF097C012F098C013F099C077
:1019D00014F09AC015F0A00E166E860E176E010E4A
:1019E000186E196A3CEC02F0696FA00E1E6E860E2E
:1019F0001F6E010E206E216A69C016F0176A186A00
:101A0000196A80EC02F0226E1BC023F01CC024F087
:101A10001DC025F02250975D226E23509859236EE9
:101A200024509959246E25509A59256E22C012F0DF
:101A300023C013F024C014F025C015F0100E166E4C
:101A4000270E176E186A196A3CEC02F07F6FA00E21
:101A50001E6E860E1F6E010E206E216A69C016F082
:101A6000176A186A196A80EC02F0226E1BC023F014
:101A70001CC024F01DC025F02250975D226E23501B
:101A80009859236E24509959246E25509A59256EE1
:101A9000100E1E6E270E1F6E206A216A7FC016F080
:101AA000176A186A196A80EC02F0266E1BC027F0CC
:101AB0001CC028F01DC029F02650225C266E27503D
:101AC0002358276E28502458286E29502558296EEF
:101AD00026C012F027C013F028C014F029C015F05A
:101AE000E80E166E030E176E186A196A3CEC02F0C7
:101AF000806FA00E1E6E860E1F6E010E206E216A74
:101B000069C016F0176A186A196A80EC02F0226E32
:101B10001BC023F01CC024F01DC025F02250975D8F
:101B2000226E23509859236E24509959246E2550C3
:101B30009A59256E100E1E6E270E1F6E206A216A9E
:101B40007FC016F0176A186A196A80EC02F0266ED8
:101B50001BC027F01CC028F01DC029F02650225CB5
:101B6000266E27502358276E28502458286E295057
:101B70002558296EE80E1E6E030E1F6E206A216A1C
:101B800080C016F0176A186A196A80EC02F02A6E93
:101B90001BC02BF01CC02CF01DC02DF02A50265C61
:101BA0002A6E2B5027582B6E2C5028582C6E2D50F7
:101BB00029582D6E2AC012F02BC013F02CC014F03F
:101BC0002DC015F0640E166E176A186A196A3CEC7F
:101BD00002F0686FA00E1E6E860E1F6E010E206E44
:101BE000216A69C016F0176A186A196A80EC02F057
:101BF000226E1BC023F01CC024F01DC025F0225013
:101C0000975D226E23509859236E24509959246E63
:101C100025509A59256E100E1E6E270E1F6E206AD3
:101C2000216A7FC016F0176A186A196A80EC02F000
:101C3000266E1BC027F01CC028F01DC029F02650BE
:101C4000225C266E27502358276E28502458286E71
:101C500029502558296EE80E1E6E030E1F6E206A4D
:101C6000216A80C016F0176A186A196A80EC02F0BF
:101C70002A6E1BC02BF01CC02CF01DC02DF02A506A
:101C8000265C2A6E2B5027582B6E2C5028582C6E11
:101C90002D5029582D6E640E1E6E1F6A206A216A0F
:101CA00068C016F0176A186A196A80EC02F02E6E86
:101CB0001BC02FF01CC030F01DC031F02E502A5C2C
:101CC0002E6E2F502B582F6E30502C58306E3150B6
:101CD0002D58316E2EC012F02FC013F030C014F00A
:101CE00031C015F00A0E166E176A186A196A3CECB4
:101CF00002F07E6FA00E1E6E860E1F6E010E206E0D
:101D0000216A69C016F0176A186A196A80EC02F035
:101D1000226E1BC023F01CC024F01DC025F02250F1
:101D2000975D226E23509859236E24509959246E42
:101D300025509A59256E100E1E6E270E1F6E206AB2
:101D4000216A7FC016F0176A186A196A80EC02F0DF
:101D5000266E1BC027F01CC028F01DC029F026509D
:101D6000225C266E27502358276E28502458286E50
:101D700029502558296EE80E1E6E030E1F6E206A2C
:101D8000216A80C016F0176A186A196A80EC02F09E
:101D90002A6E1BC02BF01CC02CF01DC02DF02A5049
:101DA000265C2A6E2B5027582B6E2C5028582C6EF0
:101DB0002D5029582D6E640E1E6E1F6A206A216AEE
:101DC00068C016F0176A186A196A80EC02F02E6E65
:101DD0001BC02FF01CC030F01DC031F02E502A5C0B
:101DE0002E6E2F502B582F6E30502C58306E315095
:101DF0002D58316E0A0E1E6E1F6A206A216A7EC03F
:101E000016F0176A186A196A80EC02F0326E1BC06D
:101E100033F01CC034F01DC035F032502E5C706FB2
:101E200069C062F0A9EC14F07FC062F0A9EC14F074
:101E300080C062F0A9EC14F068C062F0A9EC14F064
:101E40007EC062F0A9EC14F070C062F0A9EC14F04E
:101E5000120097C012F098C013F099C014F09AC005
:101E600015F0196A186A270E176E0F0E01EC02F0B2
:101E7000D8A4C6EF10F097C012F098C013F099C024
:101E800014F09AC015F0100E166E270E176E186A11
:101E9000196A3CEC02F07F6F100E1E6E270E1F6E4B
:101EA000206A216A7FC016F0176A186A196A80ECE6
:101EB00002F0226E1BC023F01CC024F01DC025F0D0
:101EC0002250975D226E23509859236E24509959C1
:101ED000246E25509A59256E22C012F023C013F0AB
:101EE00024C014F025C015F0E80E166E030E176E10
:101EF000186A196A3CEC02F0806F100E1E6E270EF5
:101F00001F6E206A216A7FC016F0176A186A196A64
:101F100080EC02F0226E1BC023F01CC024F01DC018
:101F200025F02250975D226E23509859236E24503D
:101F30009959246E25509A59256EE80E1E6E030E8F
:101F40001F6E206A216A80C016F0176A186A196A23
:101F500080EC02F0266E1BC027F01CC028F01DC0CC
:101F600029F02650225C266E27502358276E2850D1
:101F70002458286E29502558296E26C012F027C0F3
:101F800013F028C014F029C015F0640E166E176AFD
:101F9000186A196A3CEC02F0686F100E1E6E270E6C
:101FA0001F6E206A216A7FC016F0176A186A196AC4
:101FB00080EC02F0226E1BC023F01CC024F01DC078
:101FC00025F02250975D226E23509859236E24509D
:101FD0009959246E25509A59256EE80E1E6E030EEF
:101FE0001F6E206A216A80C016F0176A186A196A83
:101FF00080EC02F0266E1BC027F01CC028F01DC02C
:1020000029F02650225C266E27502358276E285030
:102010002458286E29502558296E640E1E6E1F6A9A
:10202000206A216A68C016F0176A186A196A80EC7B
:1020300002F02A6E1BC02BF01CC02CF01DC02DF02E
:102040002A50265C2A6E2B5027582B6E2C5028586D
:102050002C6E2D5029582D6E2AC012F02BC013F073
:102060002CC014F02DC015F00A0E166E176A186AEF
:10207000196A3CEC02F07E6F100E1E6E270E1F6E6A
:10208000206A216A7FC016F0176A186A196A80EC04
:1020900002F0226E1BC023F01CC024F01DC025F0EE
:1020A0002250975D226E23509859236E24509959DF
:1020B000246E25509A59256EE80E1E6E030E1F6E73
:1020C000206A216A80C016F0176A186A196A80ECC3
:1020D00002F0266E1BC027F01CC028F01DC029F09E
:1020E0002650225C266E27502358276E28502458ED
:1020F000286E29502558296E640E1E6E1F6A206AAC
:10210000216A68C016F0176A186A196A80EC02F032
:102110002A6E1BC02BF01CC02CF01DC02DF02A50C5
:10212000265C2A6E2B5027582B6E2C5028582C6E6C
:102130002D5029582D6E0A0E1E6E1F6A206A216AC4
:102140007EC016F0176A186A196A80EC02F02E6ECB
:102150001BC02FF01CC030F01DC031F02E502A5C87
:10216000706F7FC062F0A9EC14F080C062F0A9EC3F
:1021700014F068C062F0A9EC14F07EC062F0A9EC23
:1021800014F070C062F0A9EC14F0120097C012F0C5
:1021900098C013F099C014F09AC015F0196A186A23
:1021A000030E176EE70E01EC02F0D8A4CEEF11F08B
:1021B00097C012F098C013F099C014F09AC015F0AF
:1021C000E80E166E030E176E186A196A3CEC02F0E0
:1021D000806FE80E1E6E030E1F6E206A216A80C09B
:1021E00016F0176A186A196A80EC02F0226E1BC09A
:1021F00023F01CC024F01DC025F02250975D226EF4
:1022000023509859236E24509959246E25509A5979
:10221000256E22C012F023C013F024C014F025C094
:1022200015F0640E166E176A186A196A3CEC02F013
:10223000686FE80E1E6E030E1F6E206A216A80C052
:1022400016F0176A186A196A80EC02F0226E1BC039
:1022500023F01CC024F01DC025F02250975D226E93
:1022600023509859236E24509959246E25509A5919
:10227000256E640E1E6E1F6A206A216A68C016F001
:10228000176A186A196A80EC02F0266E1BC027F0E4
:102290001CC028F01DC029F02650225C266E275055
:1022A0002358276E28502458286E29502558296E07
:1022B00026C012F027C013F028C014F029C015F072
:1022C0000A0E166E176A186A196A3CEC02F07E6FE5
:1022D000E80E1E6E030E1F6E206A216A80C016F083
:1022E000176A186A196A80EC02F0226E1BC023F08C
:1022F0001CC024F01DC025F02250975D226E235093
:102300009859236E24509959246E25509A59256E58
:10231000640E1E6E1F6A206A216A68C016F0176A72
:10232000186A196A80EC02F0266E1BC027F01CC0E8
:1023300028F01DC029F02650225C266E2750235815
:10234000276E28502458286E29502558296E0A0EC9
:102350001E6E1F6A206A216A7EC016F0176A186A0C
:10236000196A80EC02F02A6E1BC02BF01CC02CF006
:102370001DC02DF02A50265C706F80C062F0A9EC61
:1023800014F068C062F0A9EC14F07EC062F0A9EC11
:1023900014F070C062F0A9EC14F0120097C012F0B3
:1023A00098C013F099C014F09AC015F0196A186A11
:1023B000176A630E01EC02F0D8A460EF12F097C028
:1023C00012F098C013F099C014F09AC015F0640E82
:1023D000166E176A186A196A3CEC02F0686F640E90
:1023E0001E6E1F6A206A216A68C016F0176A186A92
:1023F000196A80EC02F0226E1BC023F01CC024F08E
:102400001DC025F02250975D226E23509859236EEF
:1024100024509959246E25509A59256E22C012F0E5
:1024200023C013F024C014F025C015F00A0E166E58
:10243000176A186A196A3CEC02F07E6F640E1E6E11
:102440001F6A206A216A68C016F0176A186A196A3A
:1024500080EC02F0226E1BC023F01CC024F01DC0D3
:1024600025F02250975D226E23509859236E2450F8
:102470009959246E25509A59256E0A0E1E6E1F6AB0
:10248000206A216A7EC016F0176A186A196A80EC01
:1024900002F0266E1BC027F01CC028F01DC029F0DA
:1024A0002650225C706F68C062F0A9EC14F07EC008
:1024B00062F0A9EC14F070C062F0A9EC14F0120004
:1024C00097C012F098C013F099C014F09AC015F09C
:1024D000196A186A176A090E01EC02F0D8A4A0EF75
:1024E00012F097C012F098C013F099C014F09AC07F
:1024F00015F00A0E166E176A186A196A3CEC02F09B
:102500007E6F0A0E1E6E1F6A206A216A7EC016F058
:10251000176A186A196A80EC02F0226E1BC023F059
:102520001CC024F01DC025F02250975D706F7EC046
:1025300062F0A9EC14F070C062F0A9EC14F0120083
:1025400097C062F0A9EC14F01200040056AEB6EF8A
:1025500012F071EC15F055C059F056C05AF05AAE51
:1025600003D0596CE86A5A56BAEF12F055C059F0C8
:1025700056C05AF059C012F05AC013F0146A156AC6
:10258000100E166E270E176E186A196A3CEC02F0D0
:102590007F6F100E1E6E270E1F6E206A216A7FC08D
:1025A00016F0176A186A196A80EC02F0226E1BC0D6
:1025B00023F01CC024F01DC025F02250595C226E6F
:1025C00023505A58236EE86A2454246EE86A25542E
:1025D000256E22C012F023C013F024C014F025C0D1
:1025E00015F0E80E166E030E176E186A196A3CECA9
:1025F00002F0806F100E1E6E270E1F6E206A216A79
:102600007FC016F0176A186A196A80EC02F0226E11
:102610001BC023F01CC024F01DC025F02250595CC3
:10262000226E23505A58236EE86A2454246EE86AB6
:102630002554256EE80E1E6E030E1F6E206A216A59
:1026400080C016F0176A186A196A80EC02F0266ECC
:102650001BC027F01CC028F01DC029F02650225CAA
:10266000266E27502358276E28502458286E29504C
:102670002558296E26C012F027C013F028C014F088
:1026800029C015F0640E166E176A186A196A3CECB8
:1026900002F0686F100E1E6E270E1F6E206A216AF0
:1026A0007FC016F0176A186A196A80EC02F0226E71
:1026B0001BC023F01CC024F01DC025F02250595C23
:1026C000226E23505A58236EE86A2454246EE86A16
:1026D0002554256EE80E1E6E030E1F6E206A216AB9
:1026E00080C016F0176A186A196A80EC02F0266E2C
:1026F0001BC027F01CC028F01DC029F02650225C0A
:10270000266E27502358276E28502458286E2950AB
:102710002558296E640E1E6E1F6A206A216A68C0E1
:1027200016F0176A186A196A80EC02F02A6E1BC04C
:102730002BF01CC02CF01DC02DF02A50265C2A6EF8
:102740002B5027582B6E2C5028582C6E2D50295862
:102750002D6E2AC012F02BC013F02CC014F02DC027
:1027600015F00A0E166E176A186A196A3CEC02F028
:102770007E6F100E1E6E270E1F6E206A216A7FC0AC
:1027800016F0176A186A196A80EC02F0226E1BC0F4
:1027900023F01CC024F01DC025F02250595C226E8D
:1027A00023505A58236EE86A2454246EE86A25544C
:1027B000256EE80E1E6E030E1F6E206A216A80C011
:1027C00016F0176A186A196A80EC02F0266E1BC0B0
:1027D00027F01CC028F01DC029F02650225C266E70
:1027E00027502358276E28502458286E29502558E2
:1027F000296E640E1E6E1F6A206A216A68C016F078
:10280000176A186A196A80EC02F02A6E1BC02BF056
:102810001CC02CF01DC02DF02A50265C2A6E2B50B7
:1028200027582B6E2C5028582C6E2D5029582D6E61
:102830000A0E1E6E1F6A206A216A7EC016F0176A91
:10284000186A196A80EC02F02E6E1BC02FF01CC0B3
:1028500030F01DC031F02E502A5C706F59C012F05C
:102860005AC013F0270E176E0F0EFEEC01F0D8A41D
:102870004FEF14F07FC062F0A9EC14F080C062F05A
:10288000A9EC14F068C062F0A9EC14F07EC062F00C
:10289000A9EC14F070C062F0A9EC14F0120059C059
:1028A00012F05AC013F0030E176EE70EFEEC01F0A3
:1028B000D8A46CEF14F080C062F0A9EC14F068C0EA
:1028C00062F0A9EC14F07EC062F0A9EC14F070C0C4
:1028D00062F0A9EC14F0120059C012F05AC013F0C3
:1028E000176A630EFEEC01F0D8A484EF14F068C000
:1028F00062F0A9EC14F07EC062F0A9EC14F070C094
:1029000062F0A9EC14F0120059C012F05AC013F092
:10291000176A090EFEEC01F0D8A498EF14F07EC0FF
:1029200062F0A9EC14F070C062F0A9EC14F012008F
:1029300070C062F0A9EC14F012000400140E5F5C89
:10294000D8B0A8EF14F05F5014086F6F85EC15F045
:1029500012003F0E5C6E6251F66E0908D8A0CBEFF4
:1029600014F0F76AF86AD890F636F736820EF62633
:10297000290EF722000EF8220800F5CF5CF0CBEF0D
:1029800014F0300C310C320C330C340C350C360C8A
:10299000370C380C390C820E0E6E0F0E106E020EB4
:1029A0000C6E820E0F6E0F0E116E010E0D6E6A51BF
:1029B000C4EC00F05C50C2EC00F05F2A1200820E02
:1029C0000E6E0F0E106E020E0C6E820E0F6E0F0E3C
:1029D000116E010E0D6E6A51C4EC00F0FE0EC4ECD7
:1029E00000F0510EC2EC00F0050EA3EC01F05F6A9E
:1029F0001200820E0E6E0F0E106E020E0C6E820E04
:102A00000F6E0F0E116E010E0D6E6A51C4EC00F0C8
:102A10002F0EC2EC00F05F2A1200820E0E6E0F0E17
:102A2000106E020E0C6E820E0F6E0F0E116E010EE6
:102A30000D6E6A51C4EC00F0250EC2EC00F05F2A66
:102A40001200820E0E6E0F0E106E020E0C6E820EB3
:102A50000F6E0F0E116E010E0D6E6A51C4EC00F078
:102A6000200EC2EC00F05F2A1200820E0E6E0F0ED6
:102A7000106E020E0C6E820E0F6E0F0E116E010E96
:102A80000D6E6A51C4EC00F0210EC2EC00F05F2A1A
:102A90001200820E0E6E0F0E106E020E0C6E820E63
:102AA0000F6E0F0E116E010E0D6E6A51C4EC00F028
:102AB0003A0EC2EC00F05F2A1200820E0E6E0F0E6C
:102AC000106E020E0C6E820E0F6E0F0E116E010E46
:102AD0000D6E6A51C4EC00F02A0EC2EC00F05F2AC1
:102AE0001200820E0E6E0F0E106E020E0C6E820E13
:102AF0000F6E0F0E116E010E0D6E6A51C4EC00F0D8
:102B00002D0EC2EC00F05F2A1200010E516E526AC7
:102B100051C012F052C013F0176A6F51F8EC01F077
:102B2000D8A499EF15F08DDF512A000E5222D8A0BB
:102B3000EFD71200820E0E6E0F0E106E020E0C6E8C
:102B4000820E0F6E0F0E116E010E0D6E6A51C4ECE7
:102B500000F0FE0EC4EC00F0450EC4EC00F0000ED8
:102B6000C2EC00F05F6A020EA3EC01F01200820ECC
:102B70000E6E0F0E106E020E0C6E820E0F6E0F0E8A
:102B8000116E010E0D6E6A51C4EC00F0FE0EC4EC25
:102B900000F0450EC4EC00F0400EC2EC00F05F6A9D
:102BA000020EA3EC01F01200820E0E6E0F0E106EDC
:102BB000020E0C6E820E0F6E0F0E116E010E0D6E58
:102BC0006A51C4EC00F0FE0EC4EC00F0450EC4ECFB
:102BD00000F0140EC2EC00F05F6A020EA3EC01F0EC
:102BE0001200820E0E6E0F0E106E020E0C6E820E12
:102BF0000F6E0F0E116E010E0D6E6A51C4EC00F0D7
:102C0000FE0EC4EC00F0450EC4EC00F0540EC2EC15
:102C100000F05F6A020EA3EC01F0120056EF17F00D
:102C2000756B080E776F746B820E0E6E0F0E106E42
:102C3000020E0C6E820E0F6E0F0E116E010E0D6ED7
:102C40007651C4EC00F00E0EC4EC00F07551C4ECEB
:102C500000F07751C4EC00F07451C2EC00F00A0EA1
:102C6000A3EC01F012004F6A506A4FC012F050C03E
:102C700013F0176A020EF8EC01F0D8A4C7EF16F0B3
:102C80004F50890FE96E000E5020EA6EEFCF22F010
:102C900022C012F0136A146A156A0A0E166E176AB9
:102CA000186A196A3CEC02F0226E13C023F014C0BB
:102CB00024F015C025F022C012F023C013F024C068
:102CC00014F025C015F0040EDAEC01F0226E13C0EA
:102CD00023F014C024F015C025F04F50890FE96E81
:102CE000000E5020EA6EEFCF26F04F50890FE96EAC
:102CF000000E5020EA6EEFCF2AF02AC012F0136ABD
:102D0000146A156A0A0E166E176A186A196A3CEC7C
:102D100002F02A6E13C02BF014C02CF015C02DF059
:102D20000A0E1E6E1F6A206A216A2AC016F02BC086
:102D300017F02CC018F02DC019F080EC02F02A6EAC
:102D40001BC02BF01CC02CF01DC02DF02A50265C9F
:102D50002A6EE86A2B542B6EE86A2C542C6EE86AB3
:102D60002D542D6E22502A2623502B2224502C2203
:102D700025502D224F508C0FE96E000E5020EA6E28
:102D80002AC0EFFF4F2A000E5022D8A06ED7820E25
:102D90000E6E0F0E106E020E0C6E820E0F6E0F0E68
:102DA000116E010E0D6E7651C4EC00F0000EC4ECF5
:102DB00000F0030E036EDA6A8C0EB5EC00F00A0E1A
:102DC000A3EC01F01200820E0E6E0F0E106E020EBA
:102DD0000C6E820E0F6E0F0E116E010E0D6E76517F
:102DE000C4EC00F0000EC4EC00F0030E036EDA6ACF
:102DF0008C0E8CEC00F04F6A506A4FC012F050C03D
:102E000013F0176A020EF8EC01F0D8A455EF17F092
:102E10004F508C0FE96E000E5020EA6EEFCF22F07B
:102E200022C012F0136A146A156A040EE4EC01F071
:102E3000226E236A246A256A0A0E1E6E1F6A206AA1
:102E4000216A22C016F023C017F024C018F025C054
:102E500019F080EC02F0226E1BC023F01CC024F09D
:102E60001DC025F04F508C0FE96E000E5020EA6E09
:102E7000EFCF26F00F0E2614266E276A286A296ADD
:102E8000225026262350272224502822255029224A
:102E90004F50890FE96E000E5020EA6E26C0EFFFFA
:102EA0004F2A000E5022D8A0A8D712009EEF18F08B
:102EB0004D6A4E6A820E0E6E0F0E106E020E0C6E72
:102EC000820E0F6E0F0E116E010E0D6E6451C4EC6A
:102ED00000F04E50C4EC00F04D50C4EC00F0AA518C
:102EE000C4EC00F0A951C4EC00F0A851C4EC00F00F
:102EF000A751C4EC00F07151C4EC00F04A50C4EC8E
:102F000000F04950C4EC00F0B251C4EC00F0B151F3
:102F1000C4EC00F0B051C4EC00F0AF51C4EC00F0D0
:102F20009251C4EC00F09151C4EC00F09051C4EC0B
:102F300000F08F51C4EC00F0A251C4EC00F0A1519C
:102F4000C4EC00F0A051C4EC00F09F51C4EC00F0C0
:102F50009E51C4EC00F09D51C4EC00F09C51C4ECB7
:102F600000F09B51C4EC00F04C50C4EC00F04B500E
:102F7000C4EC00F0030E036EDA6A830EB7EC00F0C7
:102F8000BA51C4EC00F0B951C4EC00F0B851C4EC33
:102F900000F0B751C4EC00F0AE51C4EC00F0AD51FC
:102FA000C4EC00F0AC51C4EC00F0AB51C4EC00F048
:102FB0006651C4EC00F07B51C4EC00F05D50C4ECF1
:102FC00000F0000E46B2010EC2EC00F00A0EA3ECB7
:102FD00001F012004D6A4E6A820E0E6E0F0E106ED8
:102FE000020E0C6E820E0F6E0F0E116E010E0D6E24
:102FF0006451C4EC00F04E50C4EC00F04D50C4ECF1
:1030000000F09EEC00F0AA6F9EEC00F0A96F9EEC21
:1030100000F0A86F9EEC00F0A76F9EEC00F0716FBF
:103020009EEC00F04A6E9EEC00F0496E9EEC00F0C3
:10303000B26F9EEC00F0B16F9EEC00F0B06F9EECB2
:1030400000F0AF6F9EEC00F0926F9EEC00F0916F7D
:103050009EEC00F0906F9EEC00F08F6F9EEC00F005
:10306000A26F9EEC00F0A16F9EEC00F0A06F9EECB2
:1030700000F09F6F9EEC00F09E6F9EEC00F09D6F45
:103080009EEC00F09C6F9EEC00F09B6F9EEC00F0BD
:103090004C6E9EEC00F04B6E030E036EDA6A830EEC
:1030A0008EEC00F09EEC00F0BA6F9EEC00F0B96F71
:1030B0009EEC00F0B86F9EEC00F0B76F9EEC00F055
:1030C000AE6F9EEC00F0AD6F9EEC00F0AC6F9EEC2E
:1030D00000F0AB6F9EEC00F0666F9EEC00F07B6F33
:1030E0009EEC00F05D6E9CEC00F0E8B04682E8A03B
:1030F000469212004D6A4E6A820E0E6E0F0E106ED0
:10310000020E0C6E820E0F6E0F0E116E010E0D6E02
:103110006451C4EC00F04E50C4EC00F04D50C4ECCF
:1031200000F0AA51C4EC00F0A951C4EC00F0A85181
:10313000C4EC00F0A751C2EC00F012008AEF2DF0B1
:1031400054EC00F05E6E04005E503F08D8A4AEEF71
:1031500018F0210E84EC00F0B6EF18F03F0E84EC6E
:1031600000F00A0E84EC00F069EF2DF0606B4F6AFE
:10317000506A4FC012F050C013F0176A1F0EF8ECDF
:1031800001F0D8A435EF19F0880E066E130E076E05
:103190003BEC00F0D8A096EF2CF0226E236A246A54
:1031A000256A4F50030FE96E010E5020EA6E22C0CF
:1031B000EFFF04000101035124080001D8A4F0EF3F
:1031C00018F0A7C0A3F0A8C0A4F0A9C0A5F0AAC099
:1031D000A6F01DEC25F00A0E84EC00F069EF2DF04E
:1031E0004F50030FE96E010E5020EA6EEFCF22F030
:1031F000040022502008D8B435EF19F04F50030FC7
:10320000E96E010E5020EA6EEFCF22F022C012F0DC
:10321000610E04EC02F0226E4F50030FE96E010EB6
:103220005020EA6EEFCF26F026C012F07A0EF5ECB1
:1032300001F0266E22502610D8A46EEF23F04F50D6
:10324000030FE96E010E5020EA6EEFCF22F04F50CF
:10325000E30FE96E000E5020EA6E22C0EFFF602BF4
:103260004F2A000E5022D8A084D75B6AD00E066E7B
:10327000070E076E3BEC00F0D8A0D4EF2CF05E6E8A
:1032800004005E502D08D8A4AEEF19F0010E6E6F49
:10329000010E4F6E506A4FC012F050C013F0176A03
:1032A0001F0EF8EC01F0D8A4ACEF19F0880E066EF2
:1032B000130E076E3BEC00F0D8A0D4EF2CF0226E7A
:1032C000236A246A256A4F50030FE96E010E5020CD
:1032D000EA6E22C0EFFF4F50030FE96E010E50203F
:1032E000EA6EEFCF22F022C012F0300E04EC02F0B2
:1032F000226E4F50030FE96E010E5020EA6EEFCFA1
:1033000026F026C012F0390EF5EC01F0266E2250A0
:103310002610D8A40CEF1AF04F04266EE86A505815
:10332000276EE86AD8A0E804286E296E4F50030F74
:10333000E96E010E5020EA6EEFCF22F02650C30F47
:10334000E96E000E2720EA6E22C0EFFF5B2A4F2AAB
:10335000000E5022D8A09FD70CEF1AF06E6B5EC003
:10336000C3F05B2A010E4F6E506A4FC012F050C07E
:1033700013F0176A1F0EF8EC01F0D8A40CEF1AF046
:10338000880E066E130E076E3BEC00F0D8A0D4EF4B
:103390002CF0226E236A246A256A4F50030FE96ECF
:1033A000010E5020EA6E22C0EFFF4F50030FE96E6E
:1033B000010E5020EA6EEFCF22F022C012F0300E44
:1033C00004EC02F0226E4F50030FE96E010E502004
:1033D000EA6EEFCF26F026C012F0390EF5EC01F0C0
:1033E000266E22502610D8A40CEF1AF04F50030F6F
:1033F000E96E010E5020EA6EEFCF22F04F50C30F5E
:10340000E96E000E5020EA6E22C0EFFF5B2A4F2AC1
:10341000000E5022D8A0A9D704005B500008D8A401
:1034200056EF1AF0450E84EC00F0520E84EC00F0DA
:10343000520E84EC00F00D0E84EC00F0450E84EC8E
:1034400000F0780E84EC00F0700E84EC00F0650E55
:1034500084EC00F0630E84EC00F0740E84EC00F059
:10346000650E84EC00F0640E84EC00F0200E84EC19
:1034700000F0610E84EC00F0720E84EC00F0670E38
:1034800084EC00F0750E84EC00F06D0E84EC00F01E
:10349000650E84EC00F06E0E84EC00F0740E84EC8B
:1034A00000F00A0E84EC00F069EF2DF0A36BA46B22
:1034B000A56BA66B010E4F6E506A4FC012F050C044
:1034C00013F0176A5B50F8EC01F0D8A489EF1BF0F9
:1034D0004F505B5C226EE86A5054236E246AE86A9F
:1034E000245A256A255A2250C30FE96E000E232064
:1034F000EA6EEFCF5CF038EC2DF0010E126E136A1D
:1035000050C017F04F500AEC02F0D8A490EF1AF018
:103510006251A327E86AA423A523A62384EF1BF006
:10352000020E126E136A50C017F04F500AEC02F0F0
:10353000D8A4B8EF1AF00A0E1E6E1F6A206A216A1C
:1035400062C016F0176A186A196A80EC02F0226EDF
:103550001BC023F01CC024F01DC025F02250A3275F
:103560002350A4232450A5232550A62384EF1BF029
:10357000030E126E136A50C017F04F500AEC02F09F
:10358000D8A4E0EF1AF0640E1E6E1F6A206A216A4A
:1035900062C016F0176A186A196A80EC02F0226E8F
:1035A0001BC023F01CC024F01DC025F02250A3270F
:1035B0002350A4232450A5232550A62384EF1BF0D9
:1035C000040E126E136A50C017F04F500AEC02F04E
:1035D000D8A409EF1BF0E80E1E6E030E1F6E206AC2
:1035E000216A62C016F0176A186A196A80EC02F044
:1035F000226E1BC023F01CC024F01DC025F02250F9
:10360000A3272350A4232450A5232550A62384EFC9
:103610001BF0050E126E136A50C017F04F500AECE3
:1036200002F0D8A432EF1BF0100E1E6E270E1F6E94
:10363000206A216A62C016F0176A186A196A80EC5B
:1036400002F0226E1BC023F01CC024F01DC025F028
:103650002250A3272350A4232450A5232550A6237A
:1036600084EF1BF0060E126E136A50C017F04F5015
:103670000AEC02F0D8A45CEF1BF0A00E1E6E860EC2
:103680001F6E010E206E216A62C016F0176A186A5A
:10369000196A80EC02F0226E1BC023F01CC024F0DB
:1036A0001DC025F02250A3272350A4232450A52376
:1036B0002550A62384EF1BF0070E126E136A50C02C
:1036C00017F04F500AEC02F0D8A484EF1BF0400E24
:1036D0001E6E420E1F6E0F0E206E216A62C016F023
:1036E000176A186A196A80EC02F0226E1BC023F078
:1036F0001CC024F01DC025F02250A3272350A42372
:103700002450A5232550A6234F2A000E5022D8A0CE
:10371000D4D6A3C097F0A4C098F0A5C099F0A6C0D5
:103720009AF09AAF05D0976DE86A985799579A57CB
:1037300097C012F098C013F099C014F09AC015F019
:10374000196A0F0E186E420E176E400E01EC02F051
:10375000D8A4F2EF1BF0450E84EC00F0520E84EC7E
:1037600000F0520E84EC00F00D0E84EC00F0410EDF
:1037700084EC00F0720E84EC00F0670E84EC00F034
:10378000750E84EC00F06D0E84EC00F0650E84EC98
:1037900000F06E0E84EC00F0740E84EC00F0200E4D
:1037A00084EC00F0740E84EC00F06F0E84EC00F0FA
:1037B0006F0E84EC00F0200E84EC00F06C0E84ECB4
:1037C00000F0610E84EC00F0720E84EC00F0670EE5
:1037D00084EC00F0650E84EC00F00A0E84EC00F03E
:1037E00069EF2DF004006E510108D8A4FDEF1BF025
:1037F000A36DE86AA457A557A657E3516D08D8A44E
:10380000E868FF0A226EE4516F08D8A4E868FF0A4E
:10381000266E22C012F0265030EC02F0266E276E83
:10382000286E296EE5517608D8A4E868FF0A2A6E4A
:103830002650271028102910126E2A5030EC02F062
:103840002A6E2B6E2C6E2D6EE6516508D8A4E868A2
:10385000FF0A2E6E2EC012F02A502B102C102D10A5
:1038600030EC02F0D8A44CEF29F0E3516708D8A45B
:10387000E868FF0A226EE4516F08D8A4E868FF0ADE
:10388000266E22C012F0265030EC02F0266E276E13
:10389000286E296EE5517408D8A4E868FF0A2A6EDC
:1038A0002650271028102910126E2A5030EC02F0F2
:1038B0002A6E2B6E2C6E2D6EE6516F08D8A4E86828
:1038C000FF0A2E6E2EC012F02A502B102C102D1035
:1038D00030EC02F0D8A4D5EF29F0E3516D08D8A45C
:1038E000E868FF0A226EE4516108D8A4E868FF0A7C
:1038F000266E22C012F0265030EC02F0266E276EA3
:10390000286E296EE5517808D8A4E868FF0A2A6E67
:103910002650271028102910126E2A5030EC02F081
:103920002A6E2B6E2C6E2D6E60510308D8A4E868A9
:10393000FF0A2E6E2EC012F02A502B102C102D10C4
:1039400030EC02F0D8A480EF25F0E3516D08D8A444
:10395000E868FF0A226EE4516908D8A4E868FF0A03
:10396000266E22C012F0265030EC02F0266E276E32
:10397000286E296EE5516E08D8A4E868FF0A2A6E01
:103980002650271028102910126E2A5030EC02F011
:103990002A6E2B6E2C6E2D6E60510308D8A4E86839
:1039A000FF0A2E6E2EC012F02A502B102C102D1054
:1039B00030EC02F0D8A4C2EF25F0E3516408D8A49B
:1039C000E868FF0A226EE4516508D8A4E868FF0A97
:1039D000266E22C012F0265030EC02F0266E276EC2
:1039E000286E296EE5516C08D8A4E868FF0A2A6E93
:1039F0002650271028102910126E2A5030EC02F0A1
:103A00002A6E2B6E2C6E2D6EE6516108D8A4E868E4
:103A1000FF0A2E6E2A502B102C102D10126E2E50D5
:103A200030EC02F02E6E2F6E306E316EE751790859
:103A3000D8A4E868FF0A326E32C012F02E502F1060
:103A40003010311030EC02F0D8A446EF2AF0E351E8
:103A50007208D8A4E868FF0A226EE4516F08D8A45F
:103A6000E868FF0A266E22C012F0265030EC02F001
:103A7000266E276E286E296EE5517408D8A4E86872
:103A8000FF0A2A6E2650271028102910126E2A507D
:103A900030EC02F02A6E2B6E2C6E2D6EE651610812
:103AA000D8A4E868FF0A2E6E2A502B102C102D1077
:103AB000126E2E5030EC02F02E6E2F6E306E316E84
:103AC000E7517408D8A4E868FF0A326E2E502F1010
:103AD00030103110126E325030EC02F0326E336E14
:103AE000346E356EE8516508D8A4E868FF0A366E72
:103AF00036C012F0325033103410351030EC02F072
:103B0000D8A404EF26F0E3517308D8A4E868FF0AAC
:103B1000226EE4517408D8A4E868FF0A266E22C019
:103B200012F0265030EC02F0266E276E286E296EB9
:103B3000E5516108D8A4E868FF0A2A6E26502710CC
:103B400028102910126E2A5030EC02F02A6E2B6ECB
:103B50002C6E2D6EE6517408D8A4E868FF0A2E6E0C
:103B60002A502B102C102D10126E2E5030EC02F01B
:103B70002E6E2F6E306E316EE7516508D8A4E8685E
:103B8000FF0A326E32C012F02E502F10301031105A
:103B900030EC02F0D8A434EF26F0E3516C08D8A43E
:103BA000E868FF0A226EE4516908D8A4E868FF0AB1
:103BB000266E22C012F0265030EC02F0266E276EE0
:103BC000286E296EE5516D08D8A4E868FF0A2A6EB0
:103BD0002650271028102910126E2A5030EC02F0BF
:103BE0002A6E2B6E2C6E2D6EE6516908D8A4E868FB
:103BF000FF0A2E6E2A502B102C102D10126E2E50F4
:103C000030EC02F02E6E2F6E306E316EE75174087C
:103C1000D8A4E868FF0A326E32C012F02E502F107E
:103C20003010311030EC02F0D8A460EF26F0E351F0
:103C30007308D8A4E868FF0A226EE4517408D8A477
:103C4000E868FF0A266E22C012F0265030EC02F01F
:103C5000266E276E286E296EE5516508D8A4E8689F
:103C6000FF0A2A6E2650271028102910126E2A509B
:103C700030EC02F02A6E2B6E2C6E2D6EE651700821
:103C8000D8A4E868FF0A2E6E2A502B102C102D1095
:103C9000126E2E5030EC02F02E6E2F6E306E316EA2
:103CA000E7517308D8A4E868FF0A326E32C012F0F8
:103CB0002E502F103010311030EC02F0D8A48AEFC3
:103CC00026F0E3516D08D8A4E868FF0A226EE4519B
:103CD0006F08D8A4E868FF0A266E22C012F02650AA
:103CE00030EC02F0266E276E286E296EE5516408CE
:103CF000D8A4E868FF0A2A6E265027102810291039
:103D0000126E2A5030EC02F02A6E2B6E2C6E2D6E45
:103D1000E6516508D8A4E868FF0A2E6E2EC012F09E
:103D20002A502B102C102D1030EC02F0D8A45FEF8D
:103D30002AF0E3517408D8A4E868FF0A226EE4511F
:103D40007208D8A4E868FF0A266E22C012F0265036
:103D500030EC02F0266E276E286E296EE551690858
:103D6000D8A4E868FF0A2A6E2650271028102910C8
:103D7000126E2A5030EC02F02A6E2B6E2C6E2D6ED5
:103D8000E6516708D8A4E868FF0A2E6E2A502B1067
:103D90002C102D10126E2E5030EC02F02E6E2F6E65
:103DA000306E316EE7516708D8A4E868FF0A326EBA
:103DB0002E502F1030103110126E325030EC02F0B5
:103DC000326E336E346E356EE8516508D8A4E868FB
:103DD000FF0A366E3250331034103510126E3650E2
:103DE00030EC02F0366E376E386E396EE95172087B
:103DF000D8A4E868FF0A3A6E3650371038103910E8
:103E0000126E3A5030EC02F03A6E3B6E3C6E3D6EF4
:103E1000EA517308D8A4E868FF0A3E6E3EC012F06B
:103E20003A503B103C103D1030EC02F0D8A49CEF0F
:103E30002AF0E3516708D8A4E868FF0A226EE4512B
:103E40006F08D8A4E868FF0A266E22C012F0265038
:103E500030EC02F0266E276E286E296EE55161085F
:103E6000D8A4E868FF0A2A6E2650271028102910C7
:103E7000126E2A5030EC02F02A6E2B6E2C6E2D6ED4
:103E8000E6516C08D8A4E868FF0A2E6E2EC012F026
:103E90002A502B102C102D1030EC02F0D8A4C8EFB3
:103EA0002AF0E3516808D8A4E868FF0A226EE451BA
:103EB0006F08D8A4E868FF0A266E22C012F02650C8
:103EC00030EC02F0266E276E286E296EE5517508DB
:103ED000D8A4E868FF0A2A6E265027102810291057
:103EE000126E2A5030EC02F02A6E2B6E2C6E2D6E64
:103EF000E6517208D8A4E868FF0A2E6E2A502B10EB
:103F00002C102D10126E2E5030EC02F02E6E2F6EF3
:103F1000306E316EE7517308D8A4E868FF0A326E3C
:103F200032C012F02E502F103010311030EC02F051
:103F3000D8A42DEF2BF0E3516D08D8A4E868FF0A50
:103F4000226EE4516908D8A4E868FF0A266E22C0F0
:103F500012F0265030EC02F0266E276E286E296E85
:103F6000E5516E08D8A4E868FF0A2A6E265027108B
:103F700028102910126E2A5030EC02F02A6E2B6E97
:103F80002C6E2D6EE6517508D8A4E868FF0A2E6ED7
:103F90002A502B102C102D10126E2E5030EC02F0E7
:103FA0002E6E2F6E306E316EE7517408D8A4E8681B
:103FB000FF0A326E2E502F1030103110126E325018
:103FC00030EC02F0326E336E346E356EE8516508B7
:103FD000D8A4E868FF0A366E32503310341035101A
:103FE000126E365030EC02F0366E376E386E396E27
:103FF000E9517308D8A4E868FF0A3A6E3AC012F093
:10400000365037103810391030EC02F0D8A45AEF7F
:104010002BF0E3517308D8A4E868FF0A226EE4513C
:104020006508D8A4E868FF0A266E22C012F0265060
:1040300030EC02F0266E276E286E296EE55163087B
:10404000D8A4E868FF0A2A6E2650271028102910E5
:10405000126E2A5030EC02F02A6E2B6E2C6E2D6EF2
:10406000E6516F08D8A4E868FF0A2E6E2A502B107C
:104070002C102D10126E2E5030EC02F02E6E2F6E82
:10408000306E316EE7516E08D8A4E868FF0A326ED0
:104090002E502F1030103110126E325030EC02F0D2
:1040A000326E336E346E356EE8516408D8A4E86819
:1040B000FF0A366E3250331034103510126E3650FF
:1040C00030EC02F0366E376E386E396EE951730897
:1040D000D8A4E868FF0A3A6E3AC012F0365037109A
:1040E0003810391030EC02F0D8A487EF2BF0E351F0
:1040F0006408D8A4E868FF0A226EE4516F08D8A4C7
:10410000E868FF0A266E22C012F0265030EC02F05A
:10411000266E276E286E296EE5516808D8A4E868D7
:10412000FF0A2A6E2650271028102910126E2A50D6
:1041300030EC02F02A6E2B6E2C6E2D6EE6516F085D
:10414000D8A4E868FF0A2E6E2A502B102C102D10D0
:10415000126E2E5030EC02F02E6E2F6E306E316EDD
:10416000E7517508D8A4E868FF0A326E2E502F1068
:1041700030103110126E325030EC02F0326E336E6D
:10418000346E356EE8517208D8A4E868FF0A366EBE
:104190003250331034103510126E365030EC02F0BD
:1041A000366E376E386E396EE9517308D8A4E868F8
:1041B000FF0A3A6E3AC012F03650371038103910F4
:1041C00030EC02F0D8A4B4EF2BF0E3516D08D8A482
:1041D000E868FF0A226EE4516108D8A4E868FF0A83
:1041E000266E22C012F0265030EC02F0266E276EAA
:1041F000286E296EE5517408D8A4E868FF0A2A6E73
:104200002650271028102910126E2A5030EC02F088
:104210002A6E2B6E2C6E2D6EE6516308D8A4E868CA
:10422000FF0A2E6E2A502B102C102D10126E2E50BD
:1042300030EC02F02E6E2F6E306E316EE751680852
:10424000D8A4E868FF0A326E32C012F02E502F1048
:104250003010311030EC02F0D8A4DDEF2BF0E35138
:104260006408D8A4E868FF0A226EE4516F08D8A455
:10427000E868FF0A266E22C012F0265030EC02F0E9
:10428000266E276E286E296EE5516D08D8A4E86861
:10429000FF0A2A6E2650271028102910126E2A5065
:1042A00030EC02F02A6E2B6E2C6E2D6EE6516908F2
:1042B000D8A4E868FF0A2E6E2A502B102C102D105F
:1042C000126E2E5030EC02F02E6E2F6E306E316E6C
:1042D000E7516E08D8A4E868FF0A326E2E502F10FE
:1042E00030103110126E325030EC02F0326E336EFC
:1042F000346E356EE8517508D8A4E868FF0A366E4A
:104300003250331034103510126E365030EC02F04B
:10431000366E376E386E396EE9517408D8A4E86885
:10432000FF0A3A6E3650371038103910126E3A5074
:1043300030EC02F03A6E3B6E3C6E3D6EEA51650821
:10434000D8A4E868FF0A3E6E3A503B103C103D107E
:10435000126E3E5030EC02F03E6E3F6E406E416E8B
:10436000EB517308D8A4E868FF0A426E42C012F00D
:104370003E503F104010411030EC02F0D8A4F4EF52
:104380002BF0E3516408D8A4E868FF0A226EE451D8
:104390006F08D8A4E868FF0A266E22C012F02650E3
:1043A00030EC02F0266E276E286E296EE5517308F8
:1043B000D8A4E868FF0A2A6E265027102810291072
:1043C000126E2A5030EC02F02A6E2B6E2C6E2D6E7F
:1043D000E6516508D8A4E868FF0A2E6E2A502B1013
:1043E0002C102D10126E2E5030EC02F02E6E2F6E0F
:1043F000306E316EE7516308D8A4E868FF0A326E68
:104400002E502F1030103110126E325030EC02F05E
:10441000326E336E346E356EE8516F08D8A4E8689A
:10442000FF0A366E3250331034103510126E36508B
:1044300030EC02F0366E376E386E396EE9516E0828
:10444000D8A4E868FF0A3A6E365037103810391091
:10445000126E3A5030EC02F03A6E3B6E3C6E3D6E9E
:10446000EA516408D8A4E868FF0A3E6E3A503B104F
:104470003C103D10126E3E5030EC02F03E6E3F6E2E
:10448000406E416EEB517308D8A4E868FF0A426E93
:1044900042C012F03E503F104010411030EC02F08C
:1044A000D8A41DEF2CF0E3516608D8A4E868FF0AF1
:1044B000226EE4516508D8A4E868FF0A266E22C07F
:1044C00012F0265030EC02F0266E276E286E296E10
:1044D000E5516508D8A4E868FF0A2A6E265027101F
:1044E00028102910126E2A5030EC02F02A6E2B6E22
:1044F0002C6E2D6EE6516408D8A4E868FF0A2E6E73
:104500002A502B102C102D10126E2E5030EC02F071
:104510002E6E2F6E306E316EE7516208D8A4E868B7
:10452000FF0A326E2E502F1030103110126E3250A2
:1045300030EC02F0326E336E346E356EE851610845
:10454000D8A4E868FF0A366E3250331034103510A4
:10455000126E365030EC02F0366E376E386E396EB1
:10456000E9516308D8A4E868FF0A3A6E365037105C
:1045700038103910126E3A5030EC02F03A6E3B6E41
:104580003C6E3D6EEA516B08D8A4E868FF0A3E6EA7
:104590003EC012F03A503B103C103D1030EC02F09F
:1045A000D8A4E2EF2AF0E3517308D8A4E868FF0A20
:1045B000226EE4517408D8A4E868FF0A266E22C06F
:1045C00012F0265030EC02F0266E276E286E296E0F
:1045D000E5517908D8A4E868FF0A2A6E265027100A
:1045E00028102910126E2A5030EC02F02A6E2B6E21
:1045F0002C6E2D6EE6516C08D8A4E868FF0A2E6E6A
:104600002A502B102C102D10126E2E5030EC02F070
:104610002E6E2F6E306E316EE7516508D8A4E868B3
:10462000FF0A326E32C012F02E502F1030103110AF
:1046300030EC02F0D8A457EF25F0450E84EC00F0E2
:10464000520E84EC00F0520E84EC00F00D0E84EC5F
:1046500000F0430E84EC00F06F0E84EC00F06D0E61
:1046600084EC00F06D0E84EC00F0610E84EC00F040
:104670006E0E84EC00F0640E84EC00F0200E84ECEE
:1046800000F060C003F0060E0A6E010E0B6EDA6ACF
:10469000E30E19EC01F0200E84EC00F06E0E84ECB9
:1046A00000F06F0E84EC00F0740E84EC00F0200E2D
:1046B00084EC00F0760E84EC00F0610E84EC00F0E7
:1046C0006C0E84EC00F0690E84EC00F0640E84EC57
:1046D00000F00D0E84EC00F069EF2DF0E35164085A
:1046E000D8A4E868FF0A226EE4516508D8A4E868F7
:1046F000FF0A266E22C012F0265030EC02F0266E21
:10470000276E286E296EE5516608D8A4E868FF0A6E
:104710002A6E2650271028102910126E2A5030ECCD
:1047200002F02A6E2B6E2C6E2D6EE6516108D8A415
:10473000E868FF0A2E6E2A502B102C102D10126ED6
:104740002E5030EC02F02E6E2F6E306E316EE7512F
:104750007508D8A4E868FF0A326E2E502F1030106A
:104760003110126E325030EC02F0326E336E346E15
:10477000356EE8516C08D8A4E868FF0A366E3250EE
:10478000331034103510126E365030EC02F0366EA5
:10479000376E386E396EE9517408D8A4E868FF0A9C
:1047A0003A6E3AC012F0365037103810391030ECEB
:1047B00002F0D8A453EF25F0E3517208D8A4E868BA
:1047C000FF0A226EE4516508D8A4E868FF0A266E45
:1047D00022C012F0265030EC02F0266E276E286EB2
:1047E000296EE5517008D8A4E868FF0A2A6E2650A1
:1047F000271028102910126E2A5030EC02F02A6E71
:104800002B6E2C6E2D6EE6516F08D8A4E868FF0A57
:104810002E6E2A502B102C102D10126E2E5030ECB4
:1048200002F02E6E2F6E306E316EE7517208D8A4F2
:10483000E868FF0A326E2E502F1030103110126EC1
:10484000325030EC02F0326E336E346E356EE85119
:104850007408D8A4E868FF0A366E36C012F03250E9
:1048600033103410351030EC02F0D8A4A2EF26F04B
:10487000E3517208D8A4E868FF0A226EE451650883
:10488000D8A4E868FF0A266E22C012F0265030EC49
:1048900002F0266E276E286E296EE5516208D8A4B4
:1048A000E868FF0A2A6E2650271028102910126E79
:1048B0002A5030EC02F02A6E2B6E2C6E2D6EE651D3
:1048C0006F08D8A4E868FF0A2E6E2A502B102C100F
:1048D0002D10126E2E5030EC02F02E6E2F6E306EB8
:1048E000316EE7516F08D8A4E868FF0A326E2E5087
:1048F0002F1030103110126E325030EC02F0326E48
:10490000336E346E356EE8517408D8A4E868FF0A37
:10491000366E36C012F0325033103410351030EC91
:1049200002F0D8A446EF25F0E3516808D8A4E8685F
:10493000FF0A226EE4516F08D8A4E868FF0A266EC9
:1049400022C012F0265030EC02F0266E276E286E40
:10495000296EE5516D08D8A4E868FF0A2A6E265032
:10496000271028102910126E2A5030EC02F02A6EFF
:104970002B6E2C6E2D6EE6516508D8A4E868FF0AF0
:104980002E6E2EC012F02A502B102C102D1030EC51
:1049900002F0D8A490EF2AF0450E84EC00F0520EFD
:1049A00084EC00F0520E84EC00F00D0E84EC00F06C
:1049B000430E84EC00F06F0E84EC00F06D0E84EC7E
:1049C00000F06D0E84EC00F0610E84EC00F06E0ED1
:1049D00084EC00F0640E84EC00F0200E84EC00F017
:1049E00060C003F0060E0A6E010E0B6EDA6AE30E6B
:1049F00019EC01F0200E84EC00F06E0E84EC00F057
:104A00006F0E84EC00F0740E84EC00F0200E84EC49
:104A100000F0760E84EC00F0610E84EC00F06C0E79
:104A200084EC00F0690E84EC00F0640E84EC00F07D
:104A30000A0E84EC00F069EF2DF0A3C012F0A4C0C0
:104A400013F0A5C014F0A6C015F0100E166E176A6C
:104A5000186A196A3CEC02F0976F13C098F014C002
:104A600099F015C09AF0036A97C01AF098C01BF02D
:104A700099C01CF09AC01DF0060E0A6E010E0B6E56
:104A800022EC01F00D0E84EC00F01200410E84ECDB
:104A900000F04F0E84EC00F04B0E84EC00F00A0E98
:104AA00084EC00F0FF0053EC03F067EF2DF0A3C09F
:104AB00012F0A4C013F0A5C014F0A6C015F0196A36
:104AC000186A176A000E07EC02F0226EA3C012F0FB
:104AD000A4C013F0A5C014F0A6C015F0196A186A96
:104AE000176A010EFBEC01F0266E22502610D8A4A6
:104AF00046EF2CF0A3C07BF0C1EC36F067EF2DF051
:104B0000100E1E6E1F6A206A216AA3C016F0A4C090
:104B100017F0A5C018F0A6C019F080EC02F0976F4E
:104B20001BC098F01CC099F01DC09AF097C012F0FD
:104B300098C013F099C014F09AC015F0AAC019F0EB
:104B4000A9C018F0A8C017F0A75107EC02F0D8A42C
:104B500046EF2CF0100E1E6E1F6A206A216AA3C059
:104B600016F0A4C017F0A5C018F0A6C019F080EC8C
:104B700002F09B6F1BC09CF01CC09DF01DC09EF0FE
:104B800067EF2DF0100E1E6E1F6A206A216AA3C007
:104B900016F0A4C017F0A5C018F0A6C019F080EC5C
:104BA00002F0976F1BC098F01CC099F01DC09AF0DE
:104BB00097C012F098C013F099C014F09AC015F085
:104BC000AAC019F0A9C018F0A8C017F0A751FBECB3
:104BD00001F0D8A446EF2CF0100E1E6E1F6A206A5A
:104BE000216AA3C016F0A4C017F0A5C018F0A6C093
:104BF00019F080EC02F09F6F1BC0A0F01CC0A1F068
:104C00001DC0A2F067EF2DF0A3C012F0A4C013F0F6
:104C1000A5C014F0A6C015F0196818681768FF0E33
:104C20000DEC02F0226EA3C012F0A4C013F0A5C0D8
:104C300014F0A6C015F0196A186A176A010E0DEC77
:104C400002F0266E22C012F0265030EC02F0D8A4FA
:104C500046EF2CF0A3C0ABF0A4C0ACF0A5C0ADF003
:104C6000A6C0AEF067EF2DF0A3C012F0A4C013F001
:104C7000A5C014F0A6C015F0196A186A176A000ECC
:104C80000DEC02F0226EA3C012F0A4C013F0A5C078
:104C900014F0A6C015F0196A186A176A010E0DEC17
:104CA00002F0266E22C012F0265030EC02F0D8A49A
:104CB00046EF2CF0A3B14682A3A1469267EF2DF0F8
:104CC000A3C012F0A4C013F0A5C014F0A6C015F044
:104CD000196A186A176A000E0DEC02F0226EA3C062
:104CE00012F0A4C013F0A5C014F0A6C015F0196A04
:104CF000186A176A010E0DEC02F0266E22C012F03F
:104D0000265030EC02F0D8A446EF2CF0A3C05DF0A2
:104D100067EF2DF0100E1E6E1F6A206A216AA3C075
:104D200016F0A4C017F0A5C018F0A6C019F080ECCA
:104D300002F0B76F1BC0B8F01CC0B9F01DC0BAF0CC
:104D400067EF2DF0E3EC16F0660E84EC00F0690ED0
:104D500084EC00F0720E84EC00F06D0E84EC00F038
:104D6000770E84EC00F0610E84EC00F0720E84EC9F
:104D700000F0650E84EC00F03D0E84EC00F0030EB4
:104D8000036E060E0A6E010E0B6EDA6A860E19ECC1
:104D900001F00D0E84EC00F0640E84EC00F0720E55
:104DA00084EC00F0690E84EC00F0760E84EC00F0E8
:104DB000650E84EC00F03D0E84EC00F0000E80B037
:104DC000010E5FEC00F00D0E84EC00F06D0E84EC33
:104DD00000F06F0E84EC00F0640E84EC00F0650EC1
:104DE00084EC00F03D0E84EC00F071515FEC00F0BB
:104DF0000D0E84EC00F0660E84EC00F0650E84EC81
:104E000000F0650E84EC00F0640E84EC00F0620E9D
:104E100084EC00F0610E84EC00F0630E84EC00F092
:104E20006B0E84EC00F03D0E84EC00F066515FECFC
:104E300000F00D0E84EC00F0640E84EC00F0650EC2
:104E400084EC00F06C0E84EC00F0610E84EC00F059
:104E5000790E84EC00F03D0E84EC00F04AC01BF0AB
:104E6000495060EC00F00D0E84EC00F0700E84EC04
:104E700000F06F0E84EC00F0730E84EC00F0690E0D
:104E800084EC00F0740E84EC00F0690E84EC00F009
:104E90006F0E84EC00F06E0E84EC00F03D0E84EC9E
:104EA00000F0A7C0A3F0A8C0A4F0A9C0A5F0AAC0B4
:104EB000A6F01DEC25F0730E84EC00F0650E84EC7A
:104EC00000F0740E84EC00F0700E84EC00F06F0EB5
:104ED00084EC00F0690E84EC00F06E0E84EC00F0BF
:104EE000740E84EC00F03D0E84EC00F0AFC0A3F033
:104EF000B0C0A4F0B1C0A5F0B2C0A6F01DEC25F082
:104F00006D0E84EC00F0690E84EC00F06E0E84EC03
:104F100000F0700E84EC00F06F0E84EC00F0730E65
:104F200084EC00F03D0E84EC00F09FC0A3F0A0C024
:104F3000A4F0A1C0A5F0A2C0A6F01DEC25F06D0E56
:104F400084EC00F0610E84EC00F0780E84EC00F04C
:104F5000700E84EC00F06F0E84EC00F0730E84ECA5
:104F600000F03D0E84EC00F09BC0A3F09CC0A4F0C8
:104F70009DC0A5F09EC0A6F01DEC25F0670E84EC48
:104F800000F06F0E84EC00F0610E84EC00F06C0E0B
:104F900084EC00F03D0E84EC00F08FC0A3F090C0D4
:104FA000A4F091C0A5F092C0A6F01DEC25F0730E00
:104FB00084EC00F0740E84EC00F0650E84EC00F0DC
:104FC000700E84EC00F0730E84EC00F03D0E84EC67
:104FD00000F0B7C0A3F0B8C0A4F0B9C0A5F0BAC043
:104FE000A6F01DEC25F0740E84EC00F0720E84EC3B
:104FF00000F0690E84EC00F0670E84EC00F0670EA0
:1050000084EC00F0650E84EC00F0720E84EC00F08D
:10501000730E84EC00F03D0E84EC00F04CC01BF0ED
:105020004B5060EC00F00D0E84EC00F0680E84EC48
:1050300000F06F0E84EC00F0750E84EC00F0720E40
:1050400084EC00F0730E84EC00F03D0E84EC00F074
:105050008B515FEC00F00D0E84EC00F06D0E84ECD3
:1050600000F0690E84EC00F06E0E84EC00F0750E1A
:1050700084EC00F0740E84EC00F0650E84EC00F01B
:10508000730E84EC00F03D0E84EC00F08A515FEC6E
:1050900000F00D0E84EC00F0730E84EC00F0650E51
:1050A00084EC00F0630E84EC00F06F0E84EC00F0F2
:1050B0006E0E84EC00F0640E84EC00F0730E84EC51
:1050C00000F03D0E84EC00F089515FEC00F00D0E15
:1050D00084EC00F0640E84EC00F06F0E84EC00F0C1
:1050E000680E84EC00F06F0E84EC00F0750E84EC1A
:1050F00000F0720E84EC00F0730E84EC00F03D0EB4
:1051000084EC00F085515FEC00F00D0E84EC00F0B3
:10511000640E84EC00F06F0E84EC00F06D0E84ECF5
:1051200000F0690E84EC00F06E0E84EC00F0750E59
:1051300084EC00F0740E84EC00F0650E84EC00F05A
:10514000730E84EC00F03D0E84EC00F084515FECB3
:1051500000F00D0E84EC00F0640E84EC00F06F0E95
:1051600084EC00F0730E84EC00F0650E84EC00F02B
:10517000630E84EC00F06F0E84EC00F06E0E84EC95
:1051800000F0640E84EC00F0730E84EC00F03D0E31
:1051900084EC00F083515FEC00F00D0E84EC00F025
:1051A0006D0E84EC00F0610E84EC00F0740E84EC63
:1051B00000F0630E84EC00F0680E84EC00F03D0E0D
:1051C00084EC00F081515FEC00F00D0E84EC00F0F7
:1051D000720E84EC00F06F0E84EC00F0740E84EC20
:1051E00000F0610E84EC00F0740E84EC00F0650EAB
:1051F00084EC00F03D0E84EC00F0ABC0A3F0ACC03A
:10520000A4F0ADC0A5F0AEC0A6F01DEC25F06C0E6C
:1052100084EC00F0690E84EC00F06D0E84EC00F07C
:10522000690E84EC00F0740E84EC00F03D0E84EC0A
:1052300000F05D505FEC00F00D0E84EC00F0730E9A
:1052400084EC00F0740E84EC00F0650E84EC00F049
:10525000700E84EC00F0200E84EC00F0730E84ECF1
:1052600000F0740E84EC00F0790E84EC00F06C0E0B
:1052700084EC00F0650E84EC00F03D0E84EC00F050
:105280007B515FEC00F00D0E84EC00F067EF2DF029
:105290000D0E84EC00F01200100E1E6E1F6A206AC4
:1052A000216AA3C016F0A4C017F0A5C018F0A6C0CC
:1052B00019F080EC02F0226E1BC023F01CC024F019
:1052C0001DC025F0A7512226A8512322A95124222E
:1052D000AA51252222C012F023C013F024C014F0DA
:1052E00025C015F0A2C019F0A1C018F0A0C017F099
:1052F0009F5107EC02F0226E100E1E6E1F6A206A8C
:10530000216AA3C016F0A4C017F0A5C018F0A6C06B
:1053100019F080EC02F0266E1BC027F01CC028F0AC
:105320001DC029F0A7512626A8512722A9512822BD
:10533000AA51292226C012F027C013F028C014F069
:1053400029C015F09EC019F09DC018F09CC017F040
:105350009B51FBEC01F0266E22502610D8A446EF9C
:105360002CF0100E1E6E1F6A206A216AA3C016F070
:10537000A4C017F0A5C018F0A6C019F080EC02F088
:10538000226E1BC023F01CC024F01DC025F022504B
:10539000AF272350B0232450B1232550B2235AEC19
:1053A0002DF065EC34F067EF2DF0100E1E6E1F6AC5
:1053B000206A216AA3C016F0A4C017F0A5C018F097
:1053C000A6C019F080EC02F0226E1BC023F01CC0B6
:1053D00024F01DC025F022C012F023C013F024C019
:1053E00014F025C015F0A2C019F0A1C018F0A0C09B
:1053F00017F09F5107EC02F0226E100E1E6E1F6A0E
:10540000206A216AA3C016F0A4C017F0A5C018F046
:10541000A6C019F080EC02F0266E1BC027F01CC05D
:1054200028F01DC029F026C012F027C013F028C0B4
:1054300014F029C015F09EC019F09DC018F09CC052
:1054400017F09B51FBEC01F0266E22502610D8A4D9
:1054500046EF2CF0100E1E6E1F6A206A216AA3C050
:1054600016F0A4C017F0A5C018F0A6C019F080EC83
:1054700002F0AF6F1BC0B0F01CC0B1F01DC0B2F0A5
:105480005AEC2DF065EC34F067EF2DF0A3C012F06C
:10549000A4C013F0A5C014F0A6C015F0196A186ACC
:1054A000176A020E07EC02F0D8A446EF2CF0A3C056
:1054B00049F0A4C04AF05AEC2DF067EF2DF0A3C0DC
:1054C00012F0A4C013F0A5C014F0A6C015F0196A1C
:1054D000186A176A090EFBEC01F0226EA3C012F0E5
:1054E000A4C013F0A5C014F0A6C015F0196A186A7C
:1054F000176A000E07EC02F0266E22502610D8A480
:1055000046EF2CF0A3C071F0A7C0AFF0A8C0B0F078
:10551000A9C0B1F0AAC0B2F05AEC2DF067EF2DF09F
:10552000A76BA86BA96BAA6BAF6BB06BB16BB26BBF
:105530005AEC2DF067EF2DF0A3C012F0A4C013F0C9
:10554000A5C014F0A6C015F0196A186A176A010EF2
:1055500007EC02F0226EA3C012F0A4C013F0A5C0A5
:1055600014F0A6C015F0196A186A270E176E100EEF
:10557000FBEC01F0266E22502610D8A446EF2CF04A
:10558000A3C04BF0A4C04CF05AEC2DF067EF2DF007
:10559000100E1E6E1F6A206A216AA3C016F0A4C0F6
:1055A00017F0A5C018F0A6C019F080EC02F08F6FBC
:1055B0001BC090F01CC091F01DC092F05AEC2DF071
:1055C00067EF2DF0A3C012F0A4C013F0A5C014F033
:1055D000A6C015F0196A186A176A000E0DEC02F0E1
:1055E000226EA3C012F0A4C013F0A5C014F0A6C090
:1055F00015F0196A186A176A010E0DEC02F0266E92
:1056000022C012F0265030EC02F0D8A446EF2CF065
:10561000A3C012F0A4C013F0A5C014F0A6C015F0EA
:10562000196A186A176A000E0DEC02F0226E7151A9
:105630000708D8A4E868FF0A266E22C012F0265098
:1056400030EC02F0D8A446EF2CF048EC36F0A3C0C2
:1056500066F05AEC2DF067EF2DF0A3C012F0A4C055
:1056600013F0A5C014F0A6C015F0196A186A176ADD
:10567000170EFBEC01F0226EA3C012F0A4C013F0D1
:10568000A5C014F0A6C015F0196A186A176A000EB2
:1056900007EC02F0266E22502610D8A446EF2CF01C
:1056A000E3EC16F0A3C08BF033EC16F05AEC2DF0BF
:1056B00067EF2DF0A3C012F0A4C013F0A5C014F042
:1056C000A6C015F0196A186A176A3B0EFBEC01F0C8
:1056D000226EA3C012F0A4C013F0A5C014F0A6C09F
:1056E00015F0196A186A176A000E07EC02F0266EA8
:1056F00022502610D8A446EF2CF0E3EC16F0A3C0FD
:105700008AF033EC16F05AEC2DF067EF2DF0A3C0C1
:1057100012F0A4C013F0A5C014F0A6C015F0196AC9
:10572000186A176A3B0EFBEC01F0226EA3C012F060
:10573000A4C013F0A5C014F0A6C015F0196A186A29
:10574000176A000E07EC02F0266E22502610D8A42D
:1057500046EF2CF0E3EC16F0A3C089F033EC16F022
:105760005AEC2DF067EF2DF0A3C012F0A4C013F097
:10577000A5C014F0A6C015F0196A186A176A170EAA
:10578000FBEC01F0226EA3C012F0A4C013F0A5C080
:1057900014F0A6C015F0196A186A176A000E07EC13
:1057A00002F0266E22502610D8A446EF2CF0A3C09B
:1057B00085F05AEC2DF067EF2DF0A3C012F0A4C0D5
:1057C00013F0A5C014F0A6C015F0196A186A176A7C
:1057D000020EFBEC01F0D8A446EF2CF0A3C081F040
:1057E0005AEC2DF067EF2DF0A3C012F0A4C013F017
:1057F000A5C014F0A6C015F0196A186A176A3B0E06
:10580000FBEC01F0226EA3C012F0A4C013F0A5C0FF
:1058100014F0A6C015F0196A186A176A000E07EC92
:1058200002F0266E22502610D8A446EF2CF0A3C01A
:1058300084F05AEC2DF067EF2DF0A3C012F0A4C055
:1058400013F0A5C014F0A6C015F0196A186A176AFB
:105850003B0EFBEC01F0226EA3C012F0A4C013F0CB
:10586000A5C014F0A6C015F0196A186A176A000ED0
:1058700007EC02F0266E22502610D8A446EF2CF03A
:10588000A3C083F05AEC2DF067EF2DF0450E84ECA9
:1058900000F0520E84EC00F0520E84EC00F00D0E7D
:1058A00084EC00F0410E84EC00F0720E84EC00F009
:1058B000670E84EC00F0750E84EC00F06D0E84EC45
:1058C00000F0650E84EC00F06E0E84EC00F0740EB7
:1058D00084EC00F0200E84EC00F06F0E84EC00F0FD
:1058E000750E84EC00F0740E84EC00F0200E84EC55
:1058F00000F06F0E84EC00F0660E84EC00F0200ED9
:1059000084EC00F0720E84EC00F0610E84EC00F088
:105910006E0E84EC00F0670E84EC00F0650E84ECF3
:1059200000F00A0E84EC00F069EF2DF0450E84ECD7
:1059300000F0520E84EC00F0520E84EC00F00D0EDC
:1059400084EC00F0430E84EC00F06F0E84EC00F069
:105950006D0E84EC00F06D0E84EC00F0610E84ECB2
:1059600000F06E0E84EC00F0640E84EC00F0200E6B
:1059700084EC00F0540E84EC00F0690E84EC00F02E
:105980006D0E84EC00F0650E84EC00F06F0E84EC7C
:1059900000F0750E84EC00F0740E84EC00F00A0E3A
:1059A00084EC00F069EF2DF0450E84EC00F0520E0F
:1059B00084EC00F0520E84EC00F00D0E84EC00F04C
:1059C000410E84EC00F0720E84EC00F0670E84EC63
:1059D00000F0750E84EC00F06D0E84EC00F0650EA6
:1059E00084EC00F06E0E84EC00F0740E84EC00F099
:1059F000200E84EC00F0540E84EC00F0690E84EC70
:105A000000F06D0E84EC00F0650E84EC00F06F0E7B
:105A100084EC00F0750E84EC00F0740E84EC00F061
:105A20000A0E84EC00F069EF2DF03F0E5C6E6251BF
:105A3000F66E0908D8A037EF2DF0F76AF86AD8900B
:105A4000F636F7365A0EF6265A0EF722000EF822D0
:105A50000800F5CF5CF037EF2DF0300C310C320C34
:105A6000330C340C350C360C370C380C390C120056
:105A7000626B9E0EF66E5A0EF76E000EF86E16688A
:105A8000162A16500908D8A059EF2DF00900F55034
:105A900009005C5CF5E116C062F059EF2DF0300CA6
:105AA000310C320C330C340C350C360C370C380CF2
:105AB000390C1200410E84EC00F04F0E84EC00F023
:105AC0004B0E84EC00F00A0E84EC00F0120058EC4F
:105AD00017F08CEC2DF004007D51715DD8B484EF8B
