:020000040000FA
:06000000006A2DEF03F081
:020008001200E4
:08001800120004C0E9FF05C05D
:10002000EAFFEE50E9CF04F0EACF05F0D8802AEFDE
:1000300003F0E95004C0E9FF05C0EAFFEE6EE9CF26
:1000400004F0EACF05F0D8802AEF03F01A6E10C052
:10005000EAFF0E50120FE96E0C50EF120EC0E9FFCE
:10006000EF1406A00C1810E01A6607D004040DE384
:10007000640EC0EC01F0045008D01A28E86804E0CF
:100080001A2C02D0055001D0071E07322AEF03F0C8
:100090000F01ABB2AB98AB880650126E0750136ECF
:1000A000166A176A04009EBA13D0E86A1606175A31
:1000B000F9E21206135A0EE37C0E166E000E176E4E
:1000C000F1D70F01ABB2AB98AB8804009EAAFDD765
:1000D000AE50D8802AEF03F01B6A1A6E018E270EED
:1000E000176E100E0CD8030E176EE80E08D8176A9C
:1000F000640E05D8176A0A0E02D81A500FD0166E71
:100100001B50136E1A50126E146A156A186A196A17
:100110005EEC02F0E866019E01BE1200300F01D0D5
:10012000E9500F0104009EA8FDD7AD6ED8802AEFDC
:1001300003F0008C00AC009CD96E0350D89020E0F6
:10014000032E03D000BC05D800AC05D819E2DE6E42
:10015000F4D7008A00AA009A00B603D000864ED8D1
:1001600034E2080E176E5ED81636172EFCD700AA9A
:100170003BD866D85FD800BA28D82ED81650D89069
:100180002AEF03F0008C00AC009CD96E030603E25A
:1001900000BC1BD018D0DE5004D815E2F7D7008A77
:1001A00000AA009A00B405D0FE0B016E0084D8901E
:1001B0000AD000B805D01E6E008820D806E21E5076
:1001C00024D803E200AA2AEF03F00ED839D800940D
:1001D0000098009601D8F7D710C0EAFF0E3CE96EF0
:1001E000E9880C50EC1208D010C0EAFF0EC0E9FFFD
:1001F0000C1CEE16E988EC162AEF03F0EDDF20D890
:10020000F3DF18D8015000B60109166E080E176EFC
:100210001636D8B0E1DFD8A0E7DF12D80BD8172EFA
:10022000F7D7DADF0DD810C0EAFF0EC0E9FF0C5097
:10023000EF14FF0F11C0EAFF0FC0E9FF0D1CD9D763
:1002400011C0EAFF0FC0E9FF0D50EE12E9880D1C46
:10025000EC16D2D7D96E030603E2D8802AEF03F05A
:1002600024EC03F0D8A01200DE6EF5D7D96E030699
:1002700002E22AEF03F0DE5024EC03F0F8D75FD857
:10028000019E0350D8B4018E0A0E026E3B0E196E09
:100290009A0E186ECA0E176E000E35D8050E196E1E
:1002A000F50E186EE10E176E000E2DD8196A980E15
:1002B000186E960E176E800E26D8196A0F0E186EDD
:1002C000420E176E400E1FD8196A010E186E860E68
:1002D000176EA00E18D8196A186A270E176E100E1E
:1002E00012D8196A186A030E176EE80E0CD8196A2C
:1002F000186A176A640E07D8196A186A176A0A0E0C
:1003000002D81A500CD0166E1D50156E1C50146E6B
:100310001B50136E1A50126E5EEC02F01250126EE9
:10032000024E019E035003E0025CD8B0120012504E
:10033000D8A4019E01BE1200300F24EF03F01DAEC1
:100340001200E86A1A6C1B561C561D562D0E24EF1F
:1003500003F07F6A7F807350744A752A2AEF03F096
:10036000E86A736E7F6A7F84550E7E6EAA0E7E6E7B
:100370007F827FB2FED77F94744A752A2AEF03F0FA
:10038000176A186A196A166EE86A1606175A185A12
:10039000195AD8A02AEF03F0030E136EDE0E02D80E
:1003A000F3D7136AE90F126EFC0E05E30000040098
:1003B0001226FDE2000012261306F9E212B000D068
:1003C00012A202D000D000001200D89012361336CC
:1003D00014361536FF0FF9E212502AEF03F0D890C9
:1003E0001532143213321232FF0FF9E212502AEF93
:1003F00003F0166E020E26D0166E020E25D0166E73
:10040000030E20D0166E030E1FD0166E010E18D0EC
:10041000166E010E17D0166E010E16D0166E060E51
:1004200011D0166E060E10D0166E040E09D0166E80
:10043000040E0AD0166E050E05D0166E050E04D0F9
:10044000026E0FD0026E0AD0026E1950151815E612
:100450001950155C08E11850145C05E11750135C45
:1004600002E11650125C040ED8B0010ED8B4020E90
:100470000214D8A4FF0E2AEF03F01550195CF3D72D
:10048000E866FF0E1214D8A4FF0E2AEF03F0121034
:10049000D8A4FF0E2AEF03F0216A15AE06D0217E04
:1004A000E86A126C13561456155619AE08D0217E00
:1004B000E86A166C17561856195601D0216A1A6A3E
:1004C0001B6A1C6A1D6A200E1E6E15341A361B36F6
:1004D0001C361D3616501A5E17501B5A18501C5ADF
:1004E00019501D5A09E216501A2617501B2218508F
:1004F0001C2219501D22D890123613361436153688
:100500001E2EE3D721AE09D0E86A126C135614569A
:1005100015561A6C1B561C561D5612502AEF03F026
:1005200016501E02F3CF1AF0F4CF1BF017501F0223
:10053000F3CF1CF0F4CF1DF01E02F3501B26F45035
:100540001C22E86A1D2216501F02F3501B26F4508D
:100550001C22E86A1D2218501E02F3501C26F4507B
:100560001D2218501F02E86A126A1222F3501D263B
:10057000F450122216502002F3501C26F4501D2273
:10058000E86A136A1222132217502002F3501D2624
:10059000F4501222E86A132218502002F350122657
:1005A000F450132219501F02F3501226F450132254
:1005B00019502002E86A146A1422F3501326F450EA
:1005C000142219501E02F3501D26F4501222E86A1C
:1005D0001322142219502102F4CF15F0F3501426DF
:1005E000E86A152216502102F3501D26F4501222FB
:1005F000E86A13221422152217502102F350122602
:10060000F4501322E86A1422152218502102F350E4
:100610001326F4501422E86A152221AE08D0165091
:10062000125E1750135A1850145A1950155A19AE11
:1006300008D01E50125E1F50135A2050145A2150D9
:10064000155A1A502AEF03F0E96EFB6A0B50FA6E46
:100650000A50F96E0001040012000C0EAF6E200E5D
:10066000AC6E900EAB6E0F015D6B5C6B926A030E0D
:100670005B6FF19EFB0E936E870E946E9568F80E7D
:10068000966E0001736B6C6BA00E656FA80E666FA3
:10069000500E6B6FD00E776F4EEF03F0C1EF15F079
:1006A000820E0E6E0F0E106E020E0C6E820E0F6E0C
:1006B0000F0E116E010E0D6E6B51D1EC00F0FE0E9F
:1006C000D1EC00F0520ED1EC00F0280ECFEC00F08F
:1006D000050E56DE820E0E6E0F0E106E020E0C6EA2
:1006E000820E0F6E0F0E116E010E0D6E6B51D1EC5E
:1006F00000F0FE0ED1EC00F0530ED1EC00F0080E2D
:10070000CFEC00F0050E3CDE92EC14F012004DEC44
:1007100015F0820E0E6E0F0E106E020E0C6E820E13
:100720000F6E0F0E116E010E0D6E6B51D1EC00F0BD
:100730004D0ED1EC00F06F0ED1EC00F0740ED1EC48
:1007400000F06F0ED1EC00F0720ED1EC00F0200E34
:10075000D1EC00F0440ED1EC00F0690ED1EC00F0C9
:10076000730ED1EC00F0610ED1EC00F0620ED1EC12
:1007700000F06C0ED1EC00F0650ED1EC00F0640ED0
:10078000CFEC00F075EC05F0A4EC15F076EC07F07A
:1007900012004DEC15F0820E0E6E0F0E106E020E52
:1007A0000C6E820E0F6E0F0E116E010E0D6E6B51E0
:1007B000D1EC00F0200ED1EC00F0200ED1EC00F0D6
:1007C0004D0ED1EC00F0610ED1EC00F06E0ED1ECCC
:1007D00000F0750ED1EC00F0610ED1EC00F06C0E63
:1007E000D1EC00F0200ED1EC00F04F0ED1EC00F077
:1007F000700ED1EC00F0650ED1EC00F0720ED1EC71
:1008000000F0610ED1EC00F0740ED1EC00F0690E36
:10081000D1EC00F06F0ED1EC00F06E0ED1EC00F0D8
:10082000200ED1EC00F0200ECFEC00F075EC05F0BE
:10083000A4EC15F0820E0E6E0F0E106E020E0C6EF2
:10084000820E0F6E0F0E116E010E0D6E6B51D1ECFC
:1008500000F03C0ED1EC00F03C0ED1EC00F02D0E7F
:10086000D1EC00F0200ED1EC00F0200ED1EC00F025
:10087000200ED1EC00F0200ED1EC00F0200ED1ECD7
:1008800000F0200ED1EC00F0200ED1EC00F0200E94
:10089000D1EC00F0200ED1EC00F0200ED1EC00F0F5
:1008A000200ED1EC00F0200ED1EC00F0200ED1ECA7
:1008B00000F0200ED1EC00F02B0ED1EC00F03E0E3B
:1008C000D1EC00F03E0ECFEC00F012004DEC15F034
:1008D000820E0E6E0F0E106E020E0C6E820E0F6EDA
:1008E0000F0E116E010E0D6E6B51D1EC00F0200E4B
:1008F000D1EC00F0450ED1EC00F0780ED1EC00F018
:10090000740ED1EC00F0650ED1EC00F0720ED1EC5B
:1009100000F06E0ED1EC00F0610ED1EC00F06C0E28
:10092000D1EC00F0200ED1EC00F04F0ED1EC00F035
:10093000700ED1EC00F0650ED1EC00F0720ED1EC2F
:1009400000F0610ED1EC00F0740ED1EC00F0690EF5
:10095000D1EC00F06F0ED1EC00F06E0ED1EC00F097
:10096000200ECFEC00F075EC05F0A4EC15F01AECBD
:1009700009F012004DEC15F0820E0E6E0F0E106E87
:10098000020E0C6E820E0F6E0F0E116E010E0D6EAA
:100990006B51D1EC00F0540ED1EC00F0720ED1ECA2
:1009A00000F0690ED1EC00F0670ED1EC00F02E0ED5
:1009B000D1EC00F0200ED1EC00F0470ED1EC00F0AD
:1009C0006F0ED1EC00F0740ED1EC00F06F0ED1EC94
:1009D00000F0200ECFEC00F00B0E5F6E90C0A4F084
:1009E00091C0A5F092C0A6F093C0A7F01EEC09F04C
:1009F00050EC14F075EC05F0A4EC15F0B5EC06F035
:100A000012005E0E5E6E820E0E6E0F0E106E020EE5
:100A10000C6E820E0F6E0F0E116E010E0D6E6B516D
:100A2000D1EC00F0FE0ED1EC00F0450ED1EC00F060
:100A30005E50CFEC00F057C055F058C056F058EC5F
:100A400012F0ACEC14F04BC055F04CC056F058EC22
:100A500012F0D4EC14F0D4EC14F012004DEC15F0BC
:100A6000820E0E6E0F0E106E020E0C6E820E0F6E48
:100A70000F0E116E010E0D6E6B51D1EC00F0540E85
:100A8000D1EC00F0690ED1EC00F06D0ED1EC00F06D
:100A9000650ED1EC00F0640ED1EC00F0200ED1EC2C
:100AA00000F0470ED1EC00F06F0ED1EC00F0740EA8
:100AB000D1EC00F06F0ED1EC00F0200ECFEC00F086
:100AC0000B0E5F6E90C0A4F091C0A5F092C0A6F08E
:100AD00093C0A7F01EEC09F050EC14F075EC05F093
:100AE000A4EC15F07EEC05F012006AEC15F0C7ECF2
:100AF00007F087EC15F01AEC09F0120048EC07F04B
:100B0000D4EC14F0ACEC14F0D4EC14F07BEC07F063
:100B100050EC14F01200B8C0A4F0B9C0A5F0BAC0EF
:100B2000A6F0BBC0A7F01EEC09F012004DEC15F0CA
:100B3000820E0E6E0F0E106E020E0C6E820E0F6E77
:100B40000F0E116E010E0D6E6B51D1EC00F0540EB4
:100B5000D1EC00F0720ED1EC00F0690ED1EC00F097
:100B6000670ED1EC00F02E0ED1EC00F0200ED1EC8F
:100B700000F04D0ED1EC00F06F0ED1EC00F0760ECF
:100B8000D1EC00F0650ED1EC00F0200ECFEC00F0BF
:100B90000B0E5F6EC0DF50EC14F0A7DFA4EC15F075
:100BA000B5EC06F012004DEC15F0820E0E6E0F0E35
:100BB000106E020E0C6E820E0F6E0F0E116E010E75
:100BC0000D6E6B51D1EC00F0540ED1EC00F0690EBB
:100BD000D1EC00F06D0ED1EC00F0650ED1EC00F020
:100BE000640ED1EC00F0200ED1EC00F04D0ED1ECF3
:100BF00000F06F0ED1EC00F0760ED1EC00F0650E37
:100C0000D1EC00F0200ECFEC00F00B0E5F6E83DF16
:100C100050EC14F06ADFA4EC15F070DF12004DEC1C
:100C200015F0820E0E6E0F0E106E020E0C6E820EFE
:100C30000F6E0F0E116E010E0D6E6B51D1EC00F0A8
:100C4000200ED1EC00F0200ED1EC00F0200ED1EC03
:100C500000F0200ED1EC00F0530ED1EC00F0740E39
:100C6000D1EC00F0610ED1EC00F0740ED1EC00F08C
:100C7000650ED1EC00F0200ED1EC00F0520ED1EC5C
:100C800000F06F0ED1EC00F0740ED1EC00F0610EAC
:100C9000D1EC00F0740ED1EC00F0650ED1EC00F058
:100CA000200ED1EC00F0200ED1EC00F0200ED1ECA3
:100CB00000F0200ECFEC00F018DFA4EC15F01AECD9
:100CC00009F012004DEC15F0820E0E6E0F0E106E34
:100CD000020E0C6E820E0F6E0F0E116E010E0D6E57
:100CE0006B51D1EC00F0200ED1EC00F0540ED1ECA1
:100CF00000F0720ED1EC00F0690ED1EC00F0670E3E
:100D0000D1EC00F0670ED1EC00F0650ED1EC00F0F4
:100D1000720ED1EC00F0650ED1EC00F0640ED1EC57
:100D200000F0200ED1EC00F0530ED1EC00F0680E74
:100D3000D1EC00F0750ED1EC00F0740ED1EC00F0A7
:100D4000740ED1EC00F0650ED1EC00F0720ED1EC17
:100D500000F0200ED1EC00F0200ECFEC00F0C5DE4C
:100D6000A4EC15F0B5EC06F01200820E0E6E0F0E1C
:100D7000106E020E0C6E820E0F6E0F0E116E010EB3
:100D80000D6E6B51D1EC00F0540ED1EC00F0720EF0
:100D9000D1EC00F0690ED1EC00F0670ED1EC00F060
:100DA000670ED1EC00F0650ED1EC00F0720ED1ECC4
:100DB00000F0730ED1EC00F03A0ED1EC00F0200EF2
:100DC000CFEC00F00A0E5F6E57C055F058C056F0D9
:100DD00058EC12F0ACEC14F04BC055F04CC056F08F
:100DE00058EC12F050EC14F012004DEC15F0820E9D
:100DF0000E6E0F0E106E020E0C6E820E0F6E0F0E28
:100E0000116E010E0D6E6B51D1EC00F0200ED1EC85
:100E100000F0200ED1EC00F0200ED1EC00F0530ECB
:100E2000D1EC00F0740ED1EC00F0610ED1EC00F0CA
:100E3000740ED1EC00F0650ED1EC00F0200ED1EC78
:100E400000F0530ED1EC00F0680ED1EC00F0750EFE
:100E5000D1EC00F0740ED1EC00F0740ED1EC00F087
:100E6000650ED1EC00F0720ED1EC00F0200ED1EC4A
:100E700000F0200ED1EC00F0200ED1EC00F0200E9E
:100E8000CFEC00F032DEA4EC15F01AEC09F0120001
:100E90008CC055F0566A58EC12F0FCEC14F08BC084
:100EA00055F0566A55C012F056C013F0176A0A0E74
:100EB000FFEC01F0D8A45FEF07F0AEEC07F058ECC0
:100EC00012F0FCEC14F08AC055F0566A55C012F0CE
:100ED00056C013F0176A0A0EFFEC01F0D8A473EFA6
:100EE00007F0AEEC07F058EC12F012005F6AD0DFAA
:100EF00050EC14F0120086C055F0566A58EC12F00F
:100F0000FCEC14F085C055F0566A55C012F056C07E
:100F100013F0176A0A0EFFEC01F0D8A492EF07F065
:100F2000AEEC07F058EC12F0FCEC14F084C055F075
:100F3000566A55C012F056C013F0176A0A0EFFEC3D
:100F400001F0D8A4A6EF07F0AEEC07F058EC12F0D1
:100F500012005F6AD0DF50EC14F01200820E0E6EA9
:100F60000F0E106E020E0C6E820E0F6E0F0E116EB3
:100F7000010E0D6E6B51D1EC00F0300ECFEC00F095
:100F80005F2A12006AEC15F0C7EC07F012007D51E1
:100F9000675DD8A4E868226EBCC012F0BDC013F033
:100FA000BEC014F0BFC015F0ABC019F0AAC018F055
:100FB000A9C017F0A8511DEC02F0266E22C012F055
:100FC000265047EC02F0266E276E286E296E04002C
:100FD0002650271028102910D8B4C1EF08F06AEC69
:100FE00015F0040067510108D8A42BEF08F0820E19
:100FF0000E6E0F0E106E020E0C6E820E0F6E0F0E26
:10100000116E010E0D6E6B51D1EC00F0500ED1EC53
:1010100000F06F0ED1EC00F0730ED1EC00F0690E11
:10102000D1EC00F0740ED1EC00F0690ED1EC00F0C0
:101030006F0ED1EC00F06E0ED1EC00F02A0ED1EC68
:1010400000F03A0ED1EC00F0200ECFEC00F00B0EC9
:101050005F6E5AEF08F0820E0E6E0F0E106E020ECB
:101060000C6E820E0F6E0F0E116E010E0D6E6B5117
:10107000D1EC00F0500ED1EC00F06F0ED1EC00F08E
:10108000730ED1EC00F0690ED1EC00F0740ED1ECCF
:1010900000F0690ED1EC00F06F0ED1EC00F06E0E96
:1010A000D1EC00F03A0ED1EC00F0200ECFEC00F0C5
:1010B0000A0E5F6EA8C0A4F0A9C0A5F0AAC0A6F051
:1010C000ABC0A7F01EEC09F0100EA825226E000E92
:1010D000A921236E000EAA21246E000EAB21256EDD
:1010E00022C012F023C013F024C014F025C015F064
:1010F0009FC019F09EC018F09DC017F09C5102ECE3
:1011000002F0226E100EA85D266E000EA959276E01
:10111000000EAA59286E000EAB59296E26C012F097
:1011200027C013F028C014F029C015F0A3C019F08F
:10113000A2C018F0A1C017F0A05111EC02F0266E69
:1011400022C012F0265047EC02F0266E276E286E61
:10115000296E04002650271028102910D8B4B5EFA6
:1011600008F0D4EC14F0E8EC14F050EC14F0A8C043
:10117000BCF0A9C0BDF0AAC0BEF0ABC0BFF067C054
:101180007DF01200C0C012F0C1C013F0C2C014F054
:10119000C3C015F0B3C019F0B2C018F0B1C017F059
:1011A000B051FCEC01F0D8A419EF09F0820E0E6EDC
:1011B0000F0E106E020E0C6E820E0F6E0F0E116E61
:1011C000010E0D6E6B51D1EC00F0530ED1EC00F01E
:1011D000650ED1EC00F0740ED1EC00F0700ED1EC85
:1011E00000F06F0ED1EC00F0690ED1EC00F06E0E45
:1011F000D1EC00F0740ED1EC00F03A0ED1EC00F01E
:10120000200ECFEC00F00A0E5F6EB0C0A4F0B1C0AB
:10121000A5F0B2C0A6F0B3C0A7F01EEC09F050ECE8
:1012200014F0B0C0C0F0B1C0C1F0B2C0C2F0B3C0E1
:10123000C3F012005F6A50EC14F01200A4C012F068
:10124000A5C013F0A6C014F0A7C015F0100E166EBE
:10125000176A186A196A4CEC02F0986F13C099F07B
:1012600014C09AF015C09BF098C012F099C013F00A
:101270009AC014F09BC015F0196A186A176A000E1C
:1012800002EC02F0D8A44EEF09F024EC15F09BAF6D
:1012900005D0986DE86A99579A579B5798C012F0F5
:1012A00099C013F09AC014F09BC015F0196A0F0E84
:1012B000186E420E176E3F0E11EC02F0D8A483EFA9
:1012C0000CF098C012F099C013F09AC014F09BC0B3
:1012D00015F0400E166E420E176E0F0E186E196A3C
:1012E0004CEC02F06D6F400E1E6E420E1F6E0F0E24
:1012F000206E216A6DC016F0176A186A196A90ECA0
:1013000002F0226E1BC023F01CC024F01DC025F08B
:101310002250985D226E23509959236E24509A5979
:10132000246E25509B59256E22C012F023C013F065
:1013300024C014F025C015F0A00E166E860E176E90
:10134000010E186E196A4CEC02F06A6F400E1E6EA8
:10135000420E1F6E0F0E206E216A6DC016F0176AC6
:10136000186A196A90EC02F0226E1BC023F01CC0B0
:1013700024F01DC025F02250985D226E235099590B
:10138000236E24509A59246E25509B59256EA00E29
:101390001E6E860E1F6E010E206E216A6AC016F048
:1013A000176A186A196A90EC02F0266E1BC027F0C3
:1013B0001CC028F01DC029F02650225C266E275044
:1013C0002358276E28502458286E29502558296EF6
:1013D00026C012F027C013F028C014F029C015F061
:1013E000100E166E270E176E186A196A4CEC02F072
:1013F000806F400E1E6E420E1F6E0F0E206E216A11
:101400006DC016F0176A186A196A90EC02F0226E25
:101410001BC023F01CC024F01DC025F02250985D95
:10142000226E23509959236E24509A59246E2550C8
:101430009B59256EA00E1E6E860E1F6E010E206E2D
:10144000216A6AC016F0176A186A196A90EC02F0ED
:10145000266E1BC027F01CC028F01DC029F02650A6
:10146000225C266E27502358276E28502458286E59
:1014700029502558296E100E1E6E270E1F6E206AE9
:10148000216A80C016F0176A186A196A90EC02F097
:101490002A6E1BC02BF01CC02CF01DC02DF02A5052
:1014A000265C2A6E2B5027582B6E2C5028582C6EF9
:1014B0002D5029582D6E2AC012F02BC013F02CC0CD
:1014C00014F02DC015F0E80E166E030E176E186A94
:1014D000196A4CEC02F0816F400E1E6E420E1F6EB8
:1014E0000F0E206E216A6DC016F0176A186A196A0D
:1014F00090EC02F0226E1BC023F01CC024F01DC033
:1015000025F02250985D226E23509959236E245065
:101510009A59246E25509B59256EA00E1E6E860E7C
:101520001F6E010E206E216A6AC016F0176A186AD3
:10153000196A90EC02F0266E1BC027F01CC028F040
:101540001DC029F02650225C266E27502358276E96
:1015500028502458286E29502558296E100E1E6ECA
:10156000270E1F6E206A216A80C016F0176A186A5B
:10157000196A90EC02F02A6E1BC02BF01CC02CF0F4
:101580001DC02DF02A50265C2A6E2B5027582B6E3A
:101590002C5028582C6E2D5029582D6EE80E1E6E9A
:1015A000030E1F6E206A216A81C016F0176A186A3E
:1015B000196A90EC02F02E6E1BC02FF01CC030F0A8
:1015C0001DC031F02E502A5C2E6E2F502B582F6EDE
:1015D00030502C58306E31502D58316E2EC012F0D4
:1015E0002FC013F030C014F031C015F0640E166E29
:1015F000176A186A196A4CEC02F0696F400E1E6E89
:10160000420E1F6E0F0E206E216A6DC016F0176A13
:10161000186A196A90EC02F0226E1BC023F01CC0FD
:1016200024F01DC025F02250985D226E2350995958
:10163000236E24509A59246E25509B59256EA00E76
:101640001E6E860E1F6E010E206E216A6AC016F095
:10165000176A186A196A90EC02F0266E1BC027F010
:101660001CC028F01DC029F02650225C266E275091
:101670002358276E28502458286E29502558296E43
:10168000100E1E6E270E1F6E206A216A80C016F093
:10169000176A186A196A90EC02F02A6E1BC02BF0C8
:1016A0001CC02CF01DC02DF02A50265C2A6E2B5039
:1016B00027582B6E2C5028582C6E2D5029582D6EE3
:1016C000E80E1E6E030E1F6E206A216A81C016F09E
:1016D000176A186A196A90EC02F02E6E1BC02FF080
:1016E0001CC030F01DC031F02E502A5C2E6E2F50E1
:1016F0002B582F6E30502C58306E31502D58316E83
:10170000640E1E6E1F6A206A216A69C016F0176A8D
:10171000186A196A90EC02F0326E1BC033F01CC0DC
:1017200034F01DC035F032502E5C326E33502F58DD
:10173000336E34503058346E35503158356E32C0B7
:1017400012F033C013F034C014F035C015F00A0E97
:10175000166E176A186A196A4CEC02F07F6F400E19
:101760001E6E420E1F6E0F0E206E216A6DC016F0A7
:10177000176A186A196A90EC02F0226E1BC023F0F7
:101780001CC024F01DC025F02250985D226E23500D
:101790009959236E24509A59246E25509B59256ED1
:1017A000A00E1E6E860E1F6E010E206E216A6AC08C
:1017B00016F0176A186A196A90EC02F0266E1BC0C0
:1017C00027F01CC028F01DC029F02650225C266E90
:1017D00027502358276E28502458286E2950255802
:1017E000296E100E1E6E270E1F6E206A216A80C0A1
:1017F00016F0176A186A196A90EC02F02A6E1BC07C
:101800002BF01CC02CF01DC02DF02A50265C2A6E37
:101810002B5027582B6E2C5028582C6E2D502958A1
:101820002D6EE80E1E6E030E1F6E206A216A81C0A7
:1018300016F0176A186A196A90EC02F02E6E1BC037
:101840002FF01CC030F01DC031F02E502A5C2E6EDF
:101850002F502B582F6E30502C58306E31502D5841
:10186000316E640E1E6E1F6A206A216A69C016F00E
:10187000176A186A196A90EC02F0326E1BC033F0D6
:101880001CC034F01DC035F032502E5C326E335027
:101890002F58336E34503058346E35503158356EC1
:1018A0000A0E1E6E1F6A206A216A7FC016F0176A30
:1018B000186A196A90EC02F0366E1BC037F01CC033
:1018C00038F01DC039F03650325C716F6DC063F076
:1018D0005CEC14F06AC063F05CEC14F080C063F060
:1018E0005CEC14F081C063F05CEC14F069C063F050
:1018F0005CEC14F07FC063F05CEC14F071C063F03A
:101900005CEC14F0120098C012F099C013F09AC069
:1019100014F09BC015F0196A010E186E860E176E32
:101920009F0E11EC02F0D8A4DCEF0EF098C012F07C
:1019300099C013F09AC014F09BC015F0A00E166E5B
:10194000860E176E010E186E196A4CEC02F06A6F63
:10195000A00E1E6E860E1F6E010E206E216A6AC0DA
:1019600016F0176A186A196A90EC02F0226E1BC012
:1019700023F01CC024F01DC025F02250985D226E7B
:1019800023509959236E24509A59246E25509B59FF
:10199000256E22C012F023C013F024C014F025C01D
:1019A00015F0100E166E270E176E186A196A4CEC99
:1019B00002F0806FA00E1E6E860E1F6E010E206E4E
:1019C000216A6AC016F0176A186A196A90EC02F068
:1019D000226E1BC023F01CC024F01DC025F0225035
:1019E000985D226E23509959236E24509A59246E83
:1019F00025509B59256E100E1E6E270E1F6E206AF5
:101A0000216A80C016F0176A186A196A90EC02F011
:101A1000266E1BC027F01CC028F01DC029F02650E0
:101A2000225C266E27502358276E28502458286E93
:101A300029502558296E26C012F027C013F028C05F
:101A400014F029C015F0E80E166E030E176E186A12
:101A5000196A4CEC02F0816FA00E1E6E860E1F6E8E
:101A6000010E206E216A6AC016F0176A186A196A98
:101A700090EC02F0226E1BC023F01CC024F01DC0AD
:101A800025F02250985D226E23509959236E2450E0
:101A90009A59246E25509B59256E100E1E6E270EE6
:101AA0001F6E206A216A80C016F0176A186A196AC8
:101AB00090EC02F0266E1BC027F01CC028F01DC061
:101AC00029F02650225C266E27502358276E285076
:101AD0002458286E29502558296EE80E1E6E030ED4
:101AE0001F6E206A216A81C016F0176A186A196A87
:101AF00090EC02F02A6E1BC02BF01CC02CF01DC015
:101B00002DF02A50265C2A6E2B5027582B6E2C5015
:101B100028582C6E2D5029582D6E2AC012F02BC03B
:101B200013F02CC014F02DC015F0640E166E176A59
:101B3000186A196A4CEC02F0696FA00E1E6E860ED0
:101B40001F6E010E206E216A6AC016F0176A186AAD
:101B5000196A90EC02F0226E1BC023F01CC024F026
:101B60001DC025F02250985D226E23509959236E96
:101B700024509A59246E25509B59256E100E1E6EC6
:101B8000270E1F6E206A216A80C016F0176A186A35
:101B9000196A90EC02F0266E1BC027F01CC028F0DA
:101BA0001DC029F02650225C266E27502358276E30
:101BB00028502458286E29502558296EE80E1E6E8C
:101BC000030E1F6E206A216A81C016F0176A186A18
:101BD000196A90EC02F02A6E1BC02BF01CC02CF08E
:101BE0001DC02DF02A50265C2A6E2B5027582B6ED4
:101BF0002C5028582C6E2D5029582D6E640E1E6EB8
:101C00001F6A206A216A69C016F0176A186A196A81
:101C100090EC02F02E6E1BC02FF01CC030F01DC0E7
:101C200031F02E502A5C2E6E2F502B582F6E3050D4
:101C30002C58306E31502D58316E2EC012F02FC0FE
:101C400013F030C014F031C015F00A0E166E176A8A
:101C5000186A196A4CEC02F07F6FA00E1E6E860E99
:101C60001F6E010E206E216A6AC016F0176A186A8C
:101C7000196A90EC02F0226E1BC023F01CC024F005
:101C80001DC025F02250985D226E23509959236E75
:101C900024509A59246E25509B59256E100E1E6EA5
:101CA000270E1F6E206A216A80C016F0176A186A14
:101CB000196A90EC02F0266E1BC027F01CC028F0B9
:101CC0001DC029F02650225C266E27502358276E0F
:101CD00028502458286E29502558296EE80E1E6E6B
:101CE000030E1F6E206A216A81C016F0176A186AF7
:101CF000196A90EC02F02A6E1BC02BF01CC02CF06D
:101D00001DC02DF02A50265C2A6E2B5027582B6EB2
:101D10002C5028582C6E2D5029582D6E640E1E6E96
:101D20001F6A206A216A69C016F0176A186A196A60
:101D300090EC02F02E6E1BC02FF01CC030F01DC0C6
:101D400031F02E502A5C2E6E2F502B582F6E3050B3
:101D50002C58306E31502D58316E0A0E1E6E1F6A8F
:101D6000206A216A7FC016F0176A186A196A90EC17
:101D700002F0326E1BC033F01CC034F01DC035F0D1
:101D800032502E5C716F6AC063F05CEC14F080C05E
:101D900063F05CEC14F081C063F05CEC14F069C09B
:101DA00063F05CEC14F07FC063F05CEC14F071C085
:101DB00063F05CEC14F0120098C012F099C013F0BC
:101DC0009AC014F09BC015F0196A186A270E176E96
:101DD0000F0E11EC02F0D8A479EF10F098C012F0B9
:101DE00099C013F09AC014F09BC015F0100E166E37
:101DF000270E176E186A196A4CEC02F0806F100EED
:101E00001E6E270E1F6E206A216A80C016F0176AA8
:101E1000186A196A90EC02F0226E1BC023F01CC0F5
:101E200024F01DC025F02250985D226E2350995950
:101E3000236E24509A59246E25509B59256E22C03A
:101E400012F023C013F024C014F025C015F0E80EE2
:101E5000166E030E176E186A196A4CEC02F0816F49
:101E6000100E1E6E270E1F6E206A216A80C016F0AB
:101E7000176A186A196A90EC02F0226E1BC023F0F0
:101E80001CC024F01DC025F02250985D226E235006
:101E90009959236E24509A59246E25509B59256ECA
:101EA000E80E1E6E030E1F6E206A216A81C016F0B6
:101EB000176A186A196A90EC02F0266E1BC027F0A8
:101EC0001CC028F01DC029F02650225C266E275029
:101ED0002358276E28502458286E29502558296EDB
:101EE00026C012F027C013F028C014F029C015F046
:101EF000640E166E176A186A196A4CEC02F0696F64
:101F0000100E1E6E270E1F6E206A216A80C016F00A
:101F1000176A186A196A90EC02F0226E1BC023F04F
:101F20001CC024F01DC025F02250985D226E235065
:101F30009959236E24509A59246E25509B59256E29
:101F4000E80E1E6E030E1F6E206A216A81C016F015
:101F5000176A186A196A90EC02F0266E1BC027F007
:101F60001CC028F01DC029F02650225C266E275088
:101F70002358276E28502458286E29502558296E3A
:101F8000640E1E6E1F6A206A216A69C016F0176A05
:101F9000186A196A90EC02F02A6E1BC02BF01CC064
:101FA0002CF01DC02DF02A50265C2A6E2B5027588D
:101FB0002B6E2C5028582C6E2D5029582D6E2AC06F
:101FC00012F02BC013F02CC014F02DC015F00A0E27
:101FD000166E176A186A196A4CEC02F07F6F100EC1
:101FE0001E6E270E1F6E206A216A80C016F0176AC7
:101FF000186A196A90EC02F0226E1BC023F01CC014
:1020000024F01DC025F02250985D226E235099596E
:10201000236E24509A59246E25509B59256EE80E44
:102020001E6E030E1F6E206A216A81C016F0176AA9
:10203000186A196A90EC02F0266E1BC027F01CC0CB
:1020400028F01DC029F02650225C266E2750235808
:10205000276E28502458286E29502558296E640E62
:102060001E6E1F6A206A216A69C016F0176A186A14
:10207000196A90EC02F02A6E1BC02BF01CC02CF0E9
:102080001DC02DF02A50265C2A6E2B5027582B6E2F
:102090002C5028582C6E2D5029582D6E0A0E1E6E6D
:1020A0001F6A206A216A7FC016F0176A186A196AC7
:1020B00090EC02F02E6E1BC02FF01CC030F01DC043
:1020C00031F02E502A5C716F80C063F05CEC14F02C
:1020D00081C063F05CEC14F069C063F05CEC14F058
:1020E0007FC063F05CEC14F071C063F05CEC14F042
:1020F000120098C012F099C013F09AC014F09BC05F
:1021000015F0196A186A030E176EE70E11EC02F04B
:10211000D8A481EF11F098C012F099C013F09AC0C2
:1021200014F09BC015F0E80E166E030E176E186AB9
:10213000196A4CEC02F0816FE80E1E6E030E1F6EE2
:10214000206A216A81C016F0176A186A196A90EC31
:1021500002F0226E1BC023F01CC024F01DC025F02D
:102160002250985D226E23509959236E24509A591B
:10217000246E25509B59256E22C012F023C013F007
:1021800024C014F025C015F0640E166E176A186A84
:10219000196A4CEC02F0696FE80E1E6E030E1F6E9A
:1021A000206A216A81C016F0176A186A196A90ECD1
:1021B00002F0226E1BC023F01CC024F01DC025F0CD
:1021C0002250985D226E23509959236E24509A59BB
:1021D000246E25509B59256E640E1E6E1F6A206A60
:1021E000216A69C016F0176A186A196A90EC02F041
:1021F000266E1BC027F01CC028F01DC029F02650F9
:10220000225C266E27502358276E28502458286EAB
:1022100029502558296E26C012F027C013F028C077
:1022200014F029C015F00A0E166E176A186A196A9A
:102230004CEC02F07F6FE80E1E6E030E1F6E206ADC
:10224000216A81C016F0176A186A196A90EC02F0C8
:10225000226E1BC023F01CC024F01DC025F02250AC
:10226000985D226E23509959236E24509A59246EFA
:1022700025509B59256E640E1E6E1F6A206A216AC6
:1022800069C016F0176A186A196A90EC02F0266E97
:102290001BC027F01CC028F01DC029F02650225C6E
:1022A000266E27502358276E28502458286E295010
:1022B0002558296E0A0E1E6E1F6A206A216A7FC089
:1022C00016F0176A186A196A90EC02F02A6E1BC0A1
:1022D0002BF01CC02CF01DC02DF02A50265C716F15
:1022E00081C063F05CEC14F069C063F05CEC14F046
:1022F0007FC063F05CEC14F071C063F05CEC14F030
:10230000120098C012F099C013F09AC014F09BC04C
:1023100015F0196A186A176A630E11EC02F0D8A456
:1023200013EF12F098C012F099C013F09AC014F095
:102330009BC015F0640E166E176A186A196A4CEC89
:1023400002F0696F640E1E6E1F6A206A216A69C0FE
:1023500016F0176A186A196A90EC02F0226E1BC018
:1023600023F01CC024F01DC025F02250985D226E81
:1023700023509959236E24509A59246E25509B5905
:10238000256E22C012F023C013F024C014F025C023
:1023900015F00A0E166E176A186A196A4CEC02F0EC
:1023A0007F6F640E1E6E1F6A206A216A69C016F074
:1023B000176A186A196A90EC02F0226E1BC023F0AB
:1023C0001CC024F01DC025F02250985D226E2350C1
:1023D0009959236E24509A59246E25509B59256E85
:1023E0000A0E1E6E1F6A206A216A7FC016F0176AE5
:1023F000186A196A90EC02F0266E1BC027F01CC008
:1024000028F01DC029F02650225C716F69C063F06E
:102410005CEC14F07FC063F05CEC14F071C063F00E
:102420005CEC14F0120098C012F099C013F09AC03E
:1024300014F09BC015F0196A186A176A090E11EC9E
:1024400002F0D8A453EF12F098C012F099C013F024
:102450009AC014F09BC015F00A0E166E176A186A1F
:10246000196A4CEC02F07F6F0A0E1E6E1F6A206A1A
:10247000216A7FC016F0176A186A196A90EC02F098
:10248000226E1BC023F01CC024F01DC025F022507A
:10249000985D716F7FC063F05CEC14F071C063F005
:1024A0005CEC14F0120098C063F05CEC14F01200C5
:1024B000040056AE69EF12F024EC15F055C059F047
:1024C00056C05AF05AAE03D0596CE86A5A566DEFAE
:1024D00012F055C059F056C05AF059C012F05AC007
:1024E00013F0146A156A100E166E270E176E186A0E
:1024F000196A4CEC02F0806F100E1E6E270E1F6ED4
:10250000206A216A80C016F0176A186A196A90EC6E
:1025100002F0226E1BC023F01CC024F01DC025F069
:102520002250595C226E23505A58236EE86A245474
:10253000246EE86A2554256E22C012F023C013F0E1
:1025400024C014F025C015F0E80E166E030E176EA9
:10255000186A196A4CEC02F0816F100E1E6E270E7D
:102560001F6E206A216A80C016F0176A186A196AFD
:1025700090EC02F0226E1BC023F01CC024F01DC0A2
:1025800025F02250595C226E23505A58236EE86A77
:102590002454246EE86A2554256EE80E1E6E030E40
:1025A0001F6E206A216A81C016F0176A186A196ABC
:1025B00090EC02F0266E1BC027F01CC028F01DC056
:1025C00029F02650225C266E27502358276E28506B
:1025D0002458286E29502558296E26C012F027C08D
:1025E00013F028C014F029C015F0640E166E176A97
:1025F000186A196A4CEC02F0696F100E1E6E270EF5
:102600001F6E206A216A80C016F0176A186A196A5C
:1026100090EC02F0226E1BC023F01CC024F01DC001
:1026200025F02250595C226E23505A58236EE86AD6
:102630002454246EE86A2554256EE80E1E6E030E9F
:102640001F6E206A216A81C016F0176A186A196A1B
:1026500090EC02F0266E1BC027F01CC028F01DC0B5
:1026600029F02650225C266E27502358276E2850CA
:102670002458286E29502558296E640E1E6E1F6A34
:10268000206A216A69C016F0176A186A196A90EC04
:1026900002F02A6E1BC02BF01CC02CF01DC02DF0C8
:1026A0002A50265C2A6E2B5027582B6E2C50285807
:1026B0002C6E2D5029582D6E2AC012F02BC013F00D
:1026C0002CC014F02DC015F00A0E166E176A186A89
:1026D000196A4CEC02F07F6F100E1E6E270E1F6EF3
:1026E000206A216A80C016F0176A186A196A90EC8D
:1026F00002F0226E1BC023F01CC024F01DC025F088
:102700002250595C226E23505A58236EE86A245492
:10271000246EE86A2554256EE80E1E6E030E1F6EA9
:10272000206A216A81C016F0176A186A196A90EC4B
:1027300002F0266E1BC027F01CC028F01DC029F037
:102740002650225C266E27502358276E2850245886
:10275000286E29502558296E640E1E6E1F6A206A45
:10276000216A69C016F0176A186A196A90EC02F0BB
:102770002A6E1BC02BF01CC02CF01DC02DF02A505F
:10278000265C2A6E2B5027582B6E2C5028582C6E06
:102790002D5029582D6E0A0E1E6E1F6A206A216A5E
:1027A0007FC016F0176A186A196A90EC02F02E6E54
:1027B0001BC02FF01CC030F01DC031F02E502A5C21
:1027C000716F59C012F05AC013F0270E176E0F0E1A
:1027D0000EEC02F0D8A402EF14F080C063F05CECC1
:1027E00014F081C063F05CEC14F069C063F05CEC41
:1027F00014F07FC063F05CEC14F071C063F05CEC2B
:1028000014F0120059C012F05AC013F0030E176EE4
:10281000E70E0EEC02F0D8A41FEF14F081C063F0B5
:102820005CEC14F069C063F05CEC14F07FC063F002
:102830005CEC14F071C063F05CEC14F0120059C051
:1028400012F05AC013F0176A630E0EEC02F0D8A40F
:1028500037EF14F069C063F05CEC14F07FC063F0F4
:102860005CEC14F071C063F05CEC14F0120059C021
:1028700012F05AC013F0176A090E0EEC02F0D8A439
:102880004BEF14F07FC063F05CEC14F071C063F0A8
:102890005CEC14F0120071C063F05CEC14F01200F8
:1028A0000400140E5F5CD8B05BEF14F05F501408A6
:1028B000706F38EC15F012003F0E5C6E6351F66ECF
:1028C0000908D8A07EEF14F0F76AF86AD890F636B7
:1028D000F736E80EF626280EF722000EF82208003A
:1028E000F5CF5CF07EEF14F0300C310C320C330C71
:1028F000340C350C360C370C380C390C820E0E6E3D
:102900000F0E106E020E0C6E820E0F6E0F0E116EF9
:10291000010E0D6E6B51D1EC00F05C50CFEC00F06D
:102920005F2A1200820E0E6E0F0E106E020E0C6EDB
:10293000820E0F6E0F0E116E010E0D6E6B51D1ECEB
:1029400000F0FE0ED1EC00F0510ECFEC00F0050EC1
:10295000C0EC01F05F6A1200820E0E6E0F0E106E58
:10296000020E0C6E820E0F6E0F0E116E010E0D6EAA
:102970006B51D1EC00F02F0ECFEC00F05F2A12006B
:10298000820E0E6E0F0E106E020E0C6E820E0F6E09
:102990000F0E116E010E0D6E6B51D1EC00F0250E75
:1029A000CFEC00F05F2A1200820E0E6E0F0E106E3A
:1029B000020E0C6E820E0F6E0F0E116E010E0D6E5A
:1029C0006B51D1EC00F0200ECFEC00F05F2A12002A
:1029D000820E0E6E0F0E106E020E0C6E820E0F6EB9
:1029E0000F0E116E010E0D6E6B51D1EC00F0210E29
:1029F000CFEC00F05F2A1200820E0E6E0F0E106EEA
:102A0000020E0C6E820E0F6E0F0E116E010E0D6E09
:102A10006B51D1EC00F03A0ECFEC00F05F2A1200BF
:102A2000820E0E6E0F0E106E020E0C6E820E0F6E68
:102A30000F0E116E010E0D6E6B51D1EC00F02A0ECF
:102A4000CFEC00F05F2A1200820E0E6E0F0E106E99
:102A5000020E0C6E820E0F6E0F0E116E010E0D6EB9
:102A60006B51D1EC00F02D0ECFEC00F05F2A12007C
:102A7000010E516E526A51C012F052C013F0176A23
:102A8000705108EC02F0D8A44CEF15F08DDF512AFC
:102A9000000E5222D8A0EFD71200820E0E6E0F0E3B
:102AA000106E020E0C6E820E0F6E0F0E116E010E66
:102AB0000D6E6B51D1EC00F0FE0ED1EC00F0450E26
:102AC000D1EC00F0000ECFEC00F05F6A020EC0EC1B
:102AD00001F01200820E0E6E0F0E106E020E0C6EC2
:102AE000820E0F6E0F0E116E010E0D6E6B51D1EC3A
:102AF00000F0FE0ED1EC00F0450ED1EC00F0400EDF
:102B0000CFEC00F05F6A020EC0EC01F01200820E02
:102B10000E6E0F0E106E020E0C6E820E0F6E0F0EEA
:102B2000116E010E0D6E6B51D1EC00F0FE0ED1EC6A
:102B300000F0450ED1EC00F0140ECFEC00F05F6A0F
:102B4000020EC0EC01F01200820E0E6E0F0E106E1F
:102B5000020E0C6E820E0F6E0F0E116E010E0D6EB8
:102B60006B51D1EC00F0FE0ED1EC00F0450ED1EC33
:102B700000F0540ECFEC00F05F6A020EC0EC01F0E2
:102B8000120009EF17F0766B080E786F756B820EE6
:102B90000E6E0F0E106E020E0C6E820E0F6E0F0E6A
:102BA000116E010E0D6E7751D1EC00F00E0ED1ECCE
:102BB00000F07651D1EC00F07851D1EC00F0755175
:102BC000CFEC00F00A0EC0EC01F012004F6A506A20
:102BD0004FC012F050C013F0176A020E08EC02F05A
:102BE000D8A47AEF16F04F508A0FE96E000E5020ED
:102BF000EA6EEFCF22F022C012F0136A146A156A4F
:102C00000A0E166E176A186A196A4CEC02F0226EE8
:102C100013C023F014C024F015C025F022C012F018
:102C200023C013F024C014F025C015F0040EEAEC04
:102C300001F0226E13C023F014C024F015C025F05B
:102C40004F508A0FE96E000E5020EA6EEFCF26F04B
:102C50004F508A0FE96E000E5020EA6EEFCF2AF037
:102C60002AC012F0136A146A156A0A0E166E176AE1
:102C7000186A196A4CEC02F02A6E13C02BF014C0CB
:102C80002CF015C02DF00A0E1E6E1F6A206A216AF4
:102C90002AC016F02BC017F02CC018F02DC019F068
:102CA00090EC02F02A6E1BC02BF01CC02CF01DC053
:102CB0002DF02A50265C2A6EE86A2B542B6EE86AA7
:102CC0002C542C6EE86A2D542D6E22502A26235047
:102CD0002B2224502C2225502D224F508D0FE96E8F
:102CE000000E5020EA6E2AC0EFFF4F2A000E50223D
:102CF000D8A06ED7820E0E6E0F0E106E020E0C6EE6
:102D0000820E0F6E0F0E116E010E0D6E7751D1EC0B
:102D100000F0000ED1EC00F0030E036EDA6A8D0EA7
:102D2000C2EC00F00A0EC0EC01F01200820E0E6E32
:102D30000F0E106E020E0C6E820E0F6E0F0E116EC5
:102D4000010E0D6E7751D1EC00F0000ED1EC00F0C9
:102D5000030E036EDA6A8D0E99EC00F04F6A506A2A
:102D60004FC012F050C013F0176A020E08EC02F0C8
:102D7000D8A408EF17F04F508D0FE96E000E5020C9
:102D8000EA6EEFCF22F022C012F0136A146A156ABD
:102D9000040EF4EC01F0226E236A246A256A0A0EFE
:102DA0001E6E1F6A206A216A22C016F023C017F027
:102DB00024C018F025C019F090EC02F0226E1BC060
:102DC00023F01CC024F01DC025F04F508D0FE96E7C
:102DD000000E5020EA6EEFCF26F00F0E2614266E5E
:102DE000276A286A296A225026262350272224503F
:102DF0002822255029224F508A0FE96E000E5020BC
:102E0000EA6E26C0EFFF4F2A000E5022D8A0A8D7A6
:102E10001200DCEF18F04D6A4E6A240E046E010EAB
:102E2000056EA8511AEC00F0A9511AEC00F0AA5155
:102E30001AEC00F0AB511AEC00F072511AEC00F0F1
:102E400067511AEC00F07C511AEC00F0000E46B00D
:102E5000010E1AEC00F05D501AEC00F0000E46B2C4
:102E6000010E1AEC00F082511AEC00F04A501AECF4
:102E700000F049501AEC00F04C501AEC00F04B50A6
:102E80001AEC00F0B0511AEC00F0B1511AEC00F05D
:102E9000B2511AEC00F0B3511AEC00F090511AEC58
:102EA00000F091511AEC00F092511AEC00F093519D
:102EB0001AEC00F0A0511AEC00F0A1511AEC00F04D
:102EC000A2511AEC00F0A3511AEC00F09C511AEC3C
:102ED00000F09D511AEC00F09E511AEC00F09F5149
:102EE0001AEC00F0B8511AEC00F0B9511AEC00F0ED
:102EF000BA511AEC00F0BB511AEC00F0AC511AECCC
:102F000000F0AD511AEC00F0AE511AEC00F0AF51E8
:102F10001AEC00F0030E036E320E0A6E0B6ADA6AC8
:102F2000840E36EC01F02A0E616F820E0E6E0F0ECB
:102F3000106E020E0C6E820E0F6E0F0E116E010ED1
:102F40000D6E6651D1EC00F04E50D1EC00F04D50BA
:102F5000D1EC00F061C003F0010EDA6E240EC2EC79
:102F600000F00A0EC0EC01F0120092EC14F0820E98
:102F70000E6E0F0E106E020E0C6E820E0F6E0F0E86
:102F8000116E010E0D6E6B51D1EC00F0520ED1ECB2
:102F900000F0650ED1EC00F0730ED1EC00F0740E71
:102FA000D1EC00F06F0ED1EC00F0720ED1EC00F01D
:102FB000690ED1EC00F06E0ED1EC00F0670ED1EC92
:102FC00000F0200ED1EC00F0730ED1EC00F0650E95
:102FD000D1EC00F0740ED1EC00F0740ED1EC00F0E6
:102FE000690ED1EC00F06E0ED1EC00F0670ED1EC62
:102FF00000F0730ED1EC00F0200ED1EC00F0200EAA
:10300000CFEC00F04D6A4E6A2A0E616F820E0E6E92
:103010000F0E106E020E0C6E820E0F6E0F0E116EE2
:10302000010E0D6E6651D1EC00F04E50D1EC00F067
:103030004D50D1EC00F061C003F0010EDA6E240EA9
:1030400099EC00F0240E046E010E056E0DEC00F0FC
:10305000A86F0DEC00F0A96F0DEC00F0AA6F0DEC5D
:1030600000F0AB6F0DEC00F0726F0DEC00F0676FCD
:103070000DEC00F07C6F0DEC00F0E8B04680E8A0AD
:1030800046900DEC00F05D6E0DEC00F0E8B046826D
:10309000E8A046920DEC00F0826F0DEC00F04A6E55
:1030A0000DEC00F0496E0DEC00F04C6E0DEC00F0F4
:1030B0004B6E0DEC00F0B06F0DEC00F0B16F0DEC4D
:1030C00000F0B26F0DEC00F0B36F0DEC00F0906FFC
:1030D0000DEC00F0916F0DEC00F0926F0DEC00F034
:1030E000936F0DEC00F0A06F0DEC00F0A16F0DECF4
:1030F00000F0A26F0DEC00F0A36F0DEC00F09C6FE0
:103100000DEC00F09D6F0DEC00F09E6F0DEC00F0EB
:103110009F6F0DEC00F0B86F0DEC00F0B96F0DEC87
:1031200000F0BA6F0DEC00F0BB6F0DEC00F0AC6F6F
:103130000DEC00F0AD6F0DEC00F0AE6F0DEC00F09B
:10314000AF6F030E036E1A0E0A6E0B6ADA6A840EF4
:103150002AEC01F012004D6A4E6A240E046E010E34
:10316000056EA8511AEC00F0A9511AEC00F0AA5112
:103170001AEC00F0AB511AEC00F0040E616F820EF5
:103180000E6E0F0E106E020E0C6E820E0F6E0F0E74
:10319000116E010E0D6E6651D1EC00F04E50D1EC67
:1031A00000F04D50D1EC00F061C003F0010EDA6E7A
:1031B000240EC2EC00F0120080EF2EF061EC00F063
:1031C0005E6E04005E503F08D8A4ECEF18F0210EAC
:1031D00091EC00F0F4EF18F03F0E91EC00F00A0EC5
:1031E00091EC00F05FEF2EF072C07EF0606B4F6AE2
:1031F000506A4FC012F050C013F0176A1F0E08EC4F
:1032000002F0D8A475EF19F0880E066E130E076E43
:1032100048EC00F0D8A088EF2DF0226E236A246AD3
:10322000256A4F50040FE96E010E5020EA6E22C04D
:10323000EFFF04000101045124080001D8A430EF7D
:1032400019F0A8C0A4F0A9C0A5F0AAC0A6F0ABC010
:10325000A7F05DEC25F00A0E91EC00F05FEF2EF088
:103260004F50040FE96E010E5020EA6EEFCF22F0AE
:10327000040022502008D8B475EF19F04F50040F05
:10328000E96E010E5020EA6EEFCF22F022C012F05C
:10329000610E14EC02F0226E4F50040FE96E010E25
:1032A0005020EA6EEFCF26F026C012F07A0E05EC21
:1032B00002F0266E22502610D8A4AEEF23F04F5015
:1032C000040FE96E010E5020EA6EEFCF22F04F504E
:1032D000E40FE96E000E5020EA6E22C0EFFF602B73
:1032E0004F2A000E5022D8A084D75B6AD00E066EFB
:1032F000070E076E48EC00F0D8A0C6EF2DF05E6E0A
:1033000004005E502D08D8A4EEEF19F0010E6F6F87
:10331000010E4F6E506A4FC012F050C013F0176A82
:103320001F0E08EC02F0D8A4ECEF19F0880E066E20
:10333000130E076E48EC00F0D8A0C6EF2DF0226EF9
:10334000236A246A256A4F50040FE96E010E50204B
:10335000EA6E22C0EFFF4F50040FE96E010E5020BD
:10336000EA6EEFCF22F022C012F0300E14EC02F021
:10337000226E4F50040FE96E010E5020EA6EEFCF1F
:1033800026F026C012F0390E05EC02F0266E22500F
:103390002610D8A44CEF1AF04F04266EE86A505855
:1033A000276EE86AD8A0E804286E296E4F50040FF3
:1033B000E96E010E5020EA6EEFCF22F02650C40FC6
:1033C000E96E000E2720EA6E22C0EFFF5B2A4F2A2B
:1033D000000E5022D8A09FD74CEF1AF06F6B5EC042
:1033E000C4F05B2A010E4F6E506A4FC012F050C0FD
:1033F00013F0176A1F0E08EC02F0D8A44CEF1AF075
:10340000880E066E130E076E48EC00F0D8A0C6EFCB
:103410002DF0226E236A246A256A4F50040FE96E4C
:10342000010E5020EA6E22C0EFFF4F50040FE96EEC
:10343000010E5020EA6EEFCF22F022C012F0300EC3
:1034400014EC02F0226E4F50040FE96E010E502072
:10345000EA6EEFCF26F026C012F0390E05EC02F02E
:10346000266E22502610D8A44CEF1AF04F50040FAD
:10347000E96E010E5020EA6EEFCF22F04F50C40FDC
:10348000E96E000E5020EA6E22C0EFFF5B2A4F2A41
:10349000000E5022D8A0A9D704005B500008D8A481
:1034A00096EF1AF0450E91EC00F0520E91EC00F000
:1034B000520E91EC00F00D0E91EC00F0450E91ECE7
:1034C00000F0780E91EC00F0700E91EC00F0650EBB
:1034D00091EC00F0630E91EC00F0740E91EC00F0B2
:1034E000650E91EC00F0640E91EC00F0200E91EC72
:1034F00000F0610E91EC00F0720E91EC00F0670E9E
:1035000091EC00F0750E91EC00F06D0E91EC00F076
:10351000650E91EC00F06E0E91EC00F0740E91ECE3
:1035200000F00A0E91EC00F05FEF2EF0A46BA56B9B
:10353000A66BA76B010E4F6E506A4FC012F050C0C1
:1035400013F0176A5B5008EC02F0D8A4C9EF1BF027
:103550004F505B5C226EE86A5054236E246AE86A1E
:10356000245A256A255A2250C40FE96E000E2320E2
:10357000EA6EEFCF5CF02AEC2EF0010E126E136AA9
:1035800050C017F04F501AEC02F0D8A4D0EF1AF048
:103590006351A427E86AA523A623A723C4EF1BF041
:1035A000020E126E136A50C017F04F501AEC02F060
:1035B000D8A4F8EF1AF00A0E1E6E1F6A206A216A5C
:1035C00063C016F0176A186A196A90EC02F0226E4E
:1035D0001BC023F01CC024F01DC025F02250A427DE
:1035E0002350A5232450A6232550A723C4EF1BF066
:1035F000030E126E136A50C017F04F501AEC02F00F
:10360000D8A420EF1BF0640E1E6E1F6A206A216A88
:1036100063C016F0176A186A196A90EC02F0226EFD
:103620001BC023F01CC024F01DC025F02250A4278D
:103630002350A5232450A6232550A723C4EF1BF015
:10364000040E126E136A50C017F04F501AEC02F0BD
:10365000D8A449EF1BF0E80E1E6E030E1F6E206A01
:10366000216A63C016F0176A186A196A90EC02F0B2
:10367000226E1BC023F01CC024F01DC025F0225078
:10368000A4272350A5232450A6232550A723C4EF05
:103690001BF0050E126E136A50C017F04F501AEC53
:1036A00002F0D8A472EF1BF0100E1E6E270E1F6ED4
:1036B000206A216A63C016F0176A186A196A90ECCA
:1036C00002F0226E1BC023F01CC024F01DC025F0A8
:1036D0002250A4272350A5232450A6232550A723F6
:1036E000C4EF1BF0060E126E136A50C017F04F5055
:1036F0001AEC02F0D8A49CEF1BF0A00E1E6E860EF2
:103700001F6E010E206E216A63C016F0176A186AD8
:10371000196A90EC02F0226E1BC023F01CC024F04A
:103720001DC025F02250A4272350A5232450A623F2
:103730002550A723C4EF1BF0070E126E136A50C06A
:1037400017F04F501AEC02F0D8A4C4EF1BF0400E53
:103750001E6E420E1F6E0F0E206E216A63C016F0A1
:10376000176A186A196A90EC02F0226E1BC023F0E7
:103770001CC024F01DC025F02250A4272350A523EF
:103780002450A6232550A7234F2A000E5022D8A04C
:10379000D4D6A4C098F0A5C099F0A6C09AF0A7C04E
:1037A0009BF09BAF05D0986DE86A99579A579B5745
:1037B00098C012F099C013F09AC014F09BC015F095
:1037C000196A0F0E186E420E176E400E11EC02F0C1
:1037D000D8A432EF1CF0450E91EC00F0520E91ECA3
:1037E00000F0520E91EC00F00D0E91EC00F0410E45
:1037F00091EC00F0720E91EC00F0670E91EC00F08D
:10380000750E91EC00F06D0E91EC00F0650E91ECF0
:1038100000F06E0E91EC00F0740E91EC00F0200EB2
:1038200091EC00F0740E91EC00F06F0E91EC00F052
:103830006F0E91EC00F0200E91EC00F06C0E91EC0C
:1038400000F0610E91EC00F0720E91EC00F0670E4A
:1038500091EC00F0650E91EC00F00A0E91EC00F096
:103860005FEF2EF004006F510108D8A43DEF1CF06B
:10387000A46DE86AA557A657A757E4516D08D8A4C8
:10388000E868FF0A226EE5516F08D8A4E868FF0ACD
:10389000266E22C012F0265040EC02F0266E276EF3
:1038A000286E296EE6517608D8A4E868FF0A2A6EC9
:1038B0002650271028102910126E2A5040EC02F0D2
:1038C0002A6E2B6E2C6E2D6EE7516508D8A4E86821
:1038D000FF0A2E6E2EC012F02A502B102C102D1025
:1038E00040EC02F0D8A43EEF2AF0E4516708D8A4D7
:1038F000E868FF0A226EE5516F08D8A4E868FF0A5D
:10390000266E22C012F0265040EC02F0266E276E82
:10391000286E296EE6517408D8A4E868FF0A2A6E5A
:103920002650271028102910126E2A5040EC02F061
:103930002A6E2B6E2C6E2D6EE7516F08D8A4E868A6
:10394000FF0A2E6E2EC012F02A502B102C102D10B4
:1039500040EC02F0D8A4C7EF2AF0E4516D08D8A4D7
:10396000E868FF0A226EE5516108D8A4E868FF0AFA
:10397000266E22C012F0265040EC02F0266E276E12
:10398000286E296EE6517808D8A4E868FF0A2A6EE6
:103990002650271028102910126E2A5040EC02F0F1
:1039A0002A6E2B6E2C6E2D6E60510308D8A4E86829
:1039B000FF0A2E6E2EC012F02A502B102C102D1044
:1039C00040EC02F0D8A4BEEF25F0E4516D08D8A475
:1039D000E868FF0A226EE5516908D8A4E868FF0A82
:1039E000266E22C012F0265040EC02F0266E276EA2
:1039F000286E296EE6516E08D8A4E868FF0A2A6E80
:103A00002650271028102910126E2A5040EC02F080
:103A10002A6E2B6E2C6E2D6E60510308D8A4E868B8
:103A2000FF0A2E6E2EC012F02A502B102C102D10D3
:103A300040EC02F0D8A407EF26F0E4516408D8A4C3
:103A4000E868FF0A226EE5516508D8A4E868FF0A15
:103A5000266E22C012F0265040EC02F0266E276E31
:103A6000286E296EE6516C08D8A4E868FF0A2A6E11
:103A70002650271028102910126E2A5040EC02F010
:103A80002A6E2B6E2C6E2D6EE7516108D8A4E86863
:103A9000FF0A2E6E2A502B102C102D10126E2E5055
:103AA00040EC02F02E6E2F6E306E316EE8517908C8
:103AB000D8A4E868FF0A326E32C012F02E502F10E0
:103AC0003010311040EC02F0D8A438EF2BF0E45164
:103AD0007208D8A4E868FF0A226EE5516F08D8A4DE
:103AE000E868FF0A266E22C012F0265040EC02F071
:103AF000266E276E286E296EE6517408D8A4E868F1
:103B0000FF0A2A6E2650271028102910126E2A50FC
:103B100040EC02F02A6E2B6E2C6E2D6EE751610880
:103B2000D8A4E868FF0A2E6E2A502B102C102D10F6
:103B3000126E2E5040EC02F02E6E2F6E306E316EF3
:103B4000E8517408D8A4E868FF0A326E2E502F108E
:103B500030103110126E325040EC02F0326E336E83
:103B6000346E356EE9516508D8A4E868FF0A366EF0
:103B700036C012F0325033103410351040EC02F0E1
:103B8000D8A450EF26F0E4517308D8A4E868FF0ADF
:103B9000226EE5517408D8A4E868FF0A266E22C098
:103BA00012F0265040EC02F0266E276E286E296E29
:103BB000E6516108D8A4E868FF0A2A6E265027104B
:103BC00028102910126E2A5040EC02F02A6E2B6E3B
:103BD0002C6E2D6EE7517408D8A4E868FF0A2E6E8B
:103BE0002A502B102C102D10126E2E5040EC02F08B
:103BF0002E6E2F6E306E316EE8516508D8A4E868DD
:103C0000FF0A326E32C012F02E502F1030103110D9
:103C100040EC02F0D8A480EF26F0E4516C08D8A460
:103C2000E868FF0A226EE5516908D8A4E868FF0A2F
:103C3000266E22C012F0265040EC02F0266E276E4F
:103C4000286E296EE6516D08D8A4E868FF0A2A6E2E
:103C50002650271028102910126E2A5040EC02F02E
:103C60002A6E2B6E2C6E2D6EE7516908D8A4E86879
:103C7000FF0A2E6E2A502B102C102D10126E2E5073
:103C800040EC02F02E6E2F6E306E316EE8517408EB
:103C9000D8A4E868FF0A326E32C012F02E502F10FE
:103CA0003010311040EC02F0D8A4ACEF26F0E45113
:103CB0007308D8A4E868FF0A226EE5517408D8A4F6
:103CC000E868FF0A266E22C012F0265040EC02F08F
:103CD000266E276E286E296EE6516508D8A4E8681E
:103CE000FF0A2A6E2650271028102910126E2A501B
:103CF00040EC02F02A6E2B6E2C6E2D6EE751700890
:103D0000D8A4E868FF0A2E6E2A502B102C102D1014
:103D1000126E2E5040EC02F02E6E2F6E306E316E11
:103D2000E8517308D8A4E868FF0A326E32C012F076
:103D30002E502F103010311040EC02F0D8A4D6EFE6
:103D400026F0E4516D08D8A4E868FF0A226EE55118
:103D50006F08D8A4E868FF0A266E22C012F0265029
:103D600040EC02F0266E276E286E296EE65164083C
:103D7000D8A4E868FF0A2A6E2650271028102910B8
:103D8000126E2A5040EC02F02A6E2B6E2C6E2D6EB5
:103D9000E7516508D8A4E868FF0A2E6E2EC012F01D
:103DA0002A502B102C102D1040EC02F0D8A451EF0B
:103DB0002BF0E4517408D8A4E868FF0A226EE5519C
:103DC0007208D8A4E868FF0A266E22C012F02650B6
:103DD00040EC02F0266E276E286E296EE6516908C7
:103DE000D8A4E868FF0A2A6E265027102810291048
:103DF000126E2A5040EC02F02A6E2B6E2C6E2D6E45
:103E0000E7516708D8A4E868FF0A2E6E2A502B10E5
:103E10002C102D10126E2E5040EC02F02E6E2F6ED4
:103E2000306E316EE8516708D8A4E868FF0A326E38
:103E30002E502F1030103110126E325040EC02F024
:103E4000326E336E346E356EE9516508D8A4E86879
:103E5000FF0A366E3250331034103510126E365061
:103E600040EC02F0366E376E386E396EEA517208E9
:103E7000D8A4E868FF0A3A6E365037103810391067
:103E8000126E3A5040EC02F03A6E3B6E3C6E3D6E64
:103E9000EB517308D8A4E868FF0A3E6E3EC012F0EA
:103EA0003A503B103C103D1040EC02F0D8A48EEF8D
:103EB0002BF0E4516708D8A4E868FF0A226EE551A8
:103EC0006F08D8A4E868FF0A266E22C012F02650B8
:103ED00040EC02F0266E276E286E296EE6516108CE
:103EE000D8A4E868FF0A2A6E265027102810291047
:103EF000126E2A5040EC02F02A6E2B6E2C6E2D6E44
:103F0000E7516C08D8A4E868FF0A2E6E2EC012F0A4
:103F10002A502B102C102D1040EC02F0D8A4BAEF30
:103F20002BF0E4516808D8A4E868FF0A226EE55136
:103F30006F08D8A4E868FF0A266E22C012F0265047
:103F400040EC02F0266E276E286E296EE651750849
:103F5000D8A4E868FF0A2A6E2650271028102910D6
:103F6000126E2A5040EC02F02A6E2B6E2C6E2D6ED3
:103F7000E7517208D8A4E868FF0A2E6E2A502B1069
:103F80002C102D10126E2E5040EC02F02E6E2F6E63
:103F9000306E316EE8517308D8A4E868FF0A326EBB
:103FA00032C012F02E502F103010311040EC02F0C1
:103FB000D8A41FEF2CF0E4516D08D8A4E868FF0ADC
:103FC000226EE5516908D8A4E868FF0A266E22C06F
:103FD00012F0265040EC02F0266E276E286E296EF5
:103FE000E6516E08D8A4E868FF0A2A6E265027100A
:103FF00028102910126E2A5040EC02F02A6E2B6E07
:104000002C6E2D6EE7517508D8A4E868FF0A2E6E55
:104010002A502B102C102D10126E2E5040EC02F056
:104020002E6E2F6E306E316EE8517408D8A4E86899
:10403000FF0A326E2E502F1030103110126E325097
:1040400040EC02F0326E336E346E356EE951650825
:10405000D8A4E868FF0A366E325033103410351099
:10406000126E365040EC02F0366E376E386E396E96
:10407000EA517308D8A4E868FF0A3A6E3AC012F011
:10408000365037103810391040EC02F0D8A44CEFFD
:104090002CF0E4517308D8A4E868FF0A226EE551B9
:1040A0006508D8A4E868FF0A266E22C012F02650E0
:1040B00040EC02F0266E276E286E296EE6516308EA
:1040C000D8A4E868FF0A2A6E265027102810291065
:1040D000126E2A5040EC02F02A6E2B6E2C6E2D6E62
:1040E000E7516F08D8A4E868FF0A2E6E2A502B10FB
:1040F0002C102D10126E2E5040EC02F02E6E2F6EF2
:10410000306E316EE8516E08D8A4E868FF0A326E4E
:104110002E502F1030103110126E325040EC02F041
:10412000326E336E346E356EE9516408D8A4E86897
:10413000FF0A366E3250331034103510126E36507E
:1041400040EC02F0366E376E386E396EEA51730805
:10415000D8A4E868FF0A3A6E3AC012F03650371019
:104160003810391040EC02F0D8A479EF2CF0E4516B
:104170006408D8A4E868FF0A226EE5516F08D8A445
:10418000E868FF0A266E22C012F0265040EC02F0CA
:10419000266E276E286E296EE6516808D8A4E86856
:1041A000FF0A2A6E2650271028102910126E2A5056
:1041B00040EC02F02A6E2B6E2C6E2D6EE7516F08CC
:1041C000D8A4E868FF0A2E6E2A502B102C102D1050
:1041D000126E2E5040EC02F02E6E2F6E306E316E4D
:1041E000E8517508D8A4E868FF0A326E2E502F10E7
:1041F00030103110126E325040EC02F0326E336EDD
:10420000346E356EE9517208D8A4E868FF0A366E3C
:104210003250331034103510126E365040EC02F02C
:10422000366E376E386E396EEA517308D8A4E86876
:10423000FF0A3A6E3AC012F0365037103810391073
:1042400040EC02F0D8A4A6EF2CF0E4516D08D8A4FD
:10425000E868FF0A226EE5516108D8A4E868FF0A01
:10426000266E22C012F0265040EC02F0266E276E19
:10427000286E296EE6517408D8A4E868FF0A2A6EF1
:104280002650271028102910126E2A5040EC02F0F8
:104290002A6E2B6E2C6E2D6EE7516308D8A4E86849
:1042A000FF0A2E6E2A502B102C102D10126E2E503D
:1042B00040EC02F02E6E2F6E306E316EE8516808C1
:1042C000D8A4E868FF0A326E32C012F02E502F10C8
:1042D0003010311040EC02F0D8A4CFEF2CF0E451B4
:1042E0006408D8A4E868FF0A226EE5516F08D8A4D4
:1042F000E868FF0A266E22C012F0265040EC02F059
:10430000266E276E286E296EE6516D08D8A4E868DF
:10431000FF0A2A6E2650271028102910126E2A50E4
:1043200040EC02F02A6E2B6E2C6E2D6EE751690860
:10433000D8A4E868FF0A2E6E2A502B102C102D10DE
:10434000126E2E5040EC02F02E6E2F6E306E316EDB
:10435000E8516E08D8A4E868FF0A326E2E502F107C
:1043600030103110126E325040EC02F0326E336E6B
:10437000346E356EE9517508D8A4E868FF0A366EC8
:104380003250331034103510126E365040EC02F0BB
:10439000366E376E386E396EEA517408D8A4E86804
:1043A000FF0A3A6E3650371038103910126E3A50F4
:1043B00040EC02F03A6E3B6E3C6E3D6EEB51650890
:1043C000D8A4E868FF0A3E6E3A503B103C103D10FE
:1043D000126E3E5040EC02F03E6E3F6E406E416EFB
:1043E000EC517308D8A4E868FF0A426E42C012F08C
:1043F0003E503F104010411040EC02F0D8A4E6EFD0
:104400002CF0E4516408D8A4E868FF0A226EE55154
:104410006F08D8A4E868FF0A266E22C012F0265062
:1044200040EC02F0266E276E286E296EE651730866
:10443000D8A4E868FF0A2A6E2650271028102910F1
:10444000126E2A5040EC02F02A6E2B6E2C6E2D6EEE
:10445000E7516508D8A4E868FF0A2E6E2A502B1091
:104460002C102D10126E2E5040EC02F02E6E2F6E7E
:10447000306E316EE8516308D8A4E868FF0A326EE6
:104480002E502F1030103110126E325040EC02F0CE
:10449000326E336E346E356EE9516F08D8A4E86819
:1044A000FF0A366E3250331034103510126E36500B
:1044B00040EC02F0366E376E386E396EEA516E0897
:1044C000D8A4E868FF0A3A6E365037103810391011
:1044D000126E3A5040EC02F03A6E3B6E3C6E3D6E0E
:1044E000EB516408D8A4E868FF0A3E6E3A503B10CE
:1044F0003C103D10126E3E5040EC02F03E6E3F6E9E
:10450000406E416EEC517308D8A4E868FF0A426E11
:1045100042C012F03E503F104010411040EC02F0FB
:10452000D8A40FEF2DF0E4516608D8A4E868FF0A7C
:10453000226EE5516508D8A4E868FF0A266E22C0FD
:1045400012F0265040EC02F0266E276E286E296E7F
:10455000E6516508D8A4E868FF0A2A6E265027109D
:1045600028102910126E2A5040EC02F02A6E2B6E91
:104570002C6E2D6EE7516408D8A4E868FF0A2E6EF1
:104580002A502B102C102D10126E2E5040EC02F0E1
:104590002E6E2F6E306E316EE8516208D8A4E86836
:1045A000FF0A326E2E502F1030103110126E325022
:1045B00040EC02F0326E336E346E356EE9516108B4
:1045C000D8A4E868FF0A366E325033103410351024
:1045D000126E365040EC02F0366E376E386E396E21
:1045E000EA516308D8A4E868FF0A3A6E36503710DB
:1045F00038103910126E3A5040EC02F03A6E3B6EB1
:104600003C6E3D6EEB516B08D8A4E868FF0A3E6E25
:104610003EC012F03A503B103C103D1040EC02F00E
:10462000D8A4D4EF2BF0E4517308D8A4E868FF0AAB
:10463000226EE5517408D8A4E868FF0A266E22C0ED
:1046400012F0265040EC02F0266E276E286E296E7E
:10465000E6517908D8A4E868FF0A2A6E2650271088
:1046600028102910126E2A5040EC02F02A6E2B6E90
:104670002C6E2D6EE7516C08D8A4E868FF0A2E6EE8
:104680002A502B102C102D10126E2E5040EC02F0E0
:104690002E6E2F6E306E316EE8516508D8A4E86832
:1046A000FF0A326E32C012F02E502F10301031102F
:1046B00040EC02F0D8A495EF25F0450E91EC00F007
:1046C000520E91EC00F0520E91EC00F00D0E91ECB8
:1046D00000F0430E91EC00F06F0E91EC00F06D0EC7
:1046E00091EC00F06D0E91EC00F0610E91EC00F099
:1046F0006E0E91EC00F0640E91EC00F0200E91EC47
:1047000000F060C003F0200E0A6E010E0B6EDA6A34
:10471000E40E36EC01F0200E91EC00F06E0E91EC00
:1047200000F06F0E91EC00F0740E91EC00F0200E92
:1047300091EC00F0760E91EC00F0610E91EC00F03F
:104740006C0E91EC00F0690E91EC00F0640E91ECAF
:1047500000F00D0E91EC00F05FEF2EF0E4516408D4
:10476000D8A4E868FF0A226EE5516508D8A4E86875
:10477000FF0A266E22C012F0265040EC02F0266E90
:10478000276E286E296EE6516608D8A4E868FF0AED
:104790002A6E2650271028102910126E2A5040EC3D
:1047A00002F02A6E2B6E2C6E2D6EE7516108D8A494
:1047B000E868FF0A2E6E2A502B102C102D10126E56
:1047C0002E5040EC02F02E6E2F6E306E316EE8519E
:1047D0007508D8A4E868FF0A326E2E502F103010EA
:1047E0003110126E325040EC02F0326E336E346E85
:1047F000356EE9516C08D8A4E868FF0A366E32506D
:10480000331034103510126E365040EC02F0366E14
:10481000376E386E396EEA517408D8A4E868FF0A1A
:104820003A6E3AC012F0365037103810391040EC5A
:1048300002F0D8A48FEF25F0E4517208D8A4E868FC
:10484000FF0A226EE5516508D8A4E868FF0A266EC3
:1048500022C012F0265040EC02F0266E276E286E21
:10486000296EE6517008D8A4E868FF0A2A6E26501F
:10487000271028102910126E2A5040EC02F02A6EE0
:104880002B6E2C6E2D6EE7516F08D8A4E868FF0AD6
:104890002E6E2A502B102C102D10126E2E5040EC24
:1048A00002F02E6E2F6E306E316EE8517208D8A471
:1048B000E868FF0A326E2E502F1030103110126E41
:1048C000325040EC02F0326E336E346E356EE95188
:1048D0007408D8A4E868FF0A366E36C012F0325069
:1048E00033103410351040EC02F0D8A4EEEF26F06F
:1048F000E4517208D8A4E868FF0A226EE551650801
:10490000D8A4E868FF0A266E22C012F0265040ECB8
:1049100002F0266E276E286E296EE6516208D8A432
:10492000E868FF0A2A6E2650271028102910126EF8
:104930002A5040EC02F02A6E2B6E2C6E2D6EE75141
:104940006F08D8A4E868FF0A2E6E2A502B102C108E
:104950002D10126E2E5040EC02F02E6E2F6E306E27
:10496000316EE8516F08D8A4E868FF0A326E2E5005
:104970002F1030103110126E325040EC02F0326EB7
:10498000336E346E356EE9517408D8A4E868FF0AB6
:10499000366E36C012F0325033103410351040EC01
:1049A00002F0D8A486EF25F0E4516808D8A4E8689E
:1049B000FF0A226EE5516F08D8A4E868FF0A266E48
:1049C00022C012F0265040EC02F0266E276E286EB0
:1049D000296EE6516D08D8A4E868FF0A2A6E2650B1
:1049E000271028102910126E2A5040EC02F02A6E6F
:1049F0002B6E2C6E2D6EE7516508D8A4E868FF0A6F
:104A00002E6E2EC012F02A502B102C102D1040ECC0
:104A100002F0D8A482EF2BF0450E91EC00F0520E7C
:104A200091EC00F0520E91EC00F00D0E91EC00F0C4
:104A3000430E91EC00F06F0E91EC00F06D0E91ECD6
:104A400000F06D0E91EC00F0610E91EC00F06E0E36
:104A500091EC00F0640E91EC00F0200E91EC00F06F
:104A600060C003F0200E0A6E010E0B6EDA6AE40ECF
:104A700036EC01F0200E91EC00F06E0E91EC00F09F
:104A80006F0E91EC00F0740E91EC00F0200E91ECA2
:104A900000F0760E91EC00F0610E91EC00F06C0EDF
:104AA00091EC00F0690E91EC00F0640E91EC00F0D6
:104AB0000A0E91EC00F05FEF2EF0A4C012F0A5C03A
:104AC00013F0A6C014F0A7C015F0100E166E176AEA
:104AD000186A196A4CEC02F0986F13C099F014C070
:104AE0009AF015C09BF0036A98C01AF099C01BF0A9
:104AF0009AC01CF09BC01DF0200E0A6E010E0B6EBA
:104B00003FEC01F00D0E91EC00F012004CEC2EF099
:104B10000D0E91EC00F00A0E91EC00F0FF00CFECCE
:104B200035F072297E6F5CEF2EF0A4C012F0A5C0A4
:104B300013F0A6C014F0A7C015F0196A186A176A16
:104B4000000E17EC02F0226EA4C012F0A5C013F004
:104B5000A6C014F0A7C015F0196A186A176A010EEA
:104B60000BEC02F0266E22502610D8A438EF2DF060
:104B7000A4C07CF06BEC37F05CEF2EF0100E1E6ED4
:104B80001F6A206A216AA4C016F0A5C017F0A6C04B
:104B900018F0A7C019F090EC02F0986F1BC099F0C4
:104BA0001CC09AF01DC09BF098C012F099C013F081
:104BB0009AC014F09BC015F0ABC019F0AAC018F051
:104BC000A9C017F0A85117EC02F0226E98C012F09D
:104BD00099C013F09AC014F09BC015F0A3C019F04F
:104BE000A2C018F0A1C017F0A05117EC02F0266E79
:104BF00022502610D8A438EF2DF098C09CF099C010
:104C00009DF09AC09EF09BC09FF05CEF2EF0100EBE
:104C10001E6E1F6A206A216AA4C016F0A5C017F094
:104C2000A6C018F0A7C019F090EC02F0986F1BC056
:104C300099F01CC09AF01DC09BF098C012F099C06A
:104C400013F09AC014F09BC015F0ABC019F0AAC0C5
:104C500018F0A9C017F0A8510BEC02F0226E98C012
:104C600012F099C013F09AC014F09BC015F09FC0C9
:104C700019F09EC018F09DC017F09C510BEC02F08B
:104C8000266E22502610D8A438EF2DF098C0A0F040
:104C900099C0A1F09AC0A2F09BC0A3F05CEF2EF0E7
:104CA000A4C012F0A5C013F0A6C014F0A7C015F060
:104CB000196818681768FF0E1DEC02F0226EA4C078
:104CC00012F0A5C013F0A6C014F0A7C015F0196A21
:104CD000186A176A010E1DEC02F0266E22C012F04F
:104CE000265040EC02F0D8A438EF2DF0A4C0ACF070
:104CF000A5C0ADF0A6C0AEF0A7C0AFF05CEF2EF03F
:104D0000A4C012F0A5C013F0A6C014F0A7C015F0FF
:104D1000196A186A176A000E1DEC02F0226EA4C010
:104D200012F0A5C013F0A6C014F0A7C015F0196AC0
:104D3000186A176A010E1DEC02F0266E22C012F0EE
:104D4000265040EC02F0D8A438EF2DF0A4B14682F2
:104D5000A4A146925CEF2EF0A4C012F0A5C013F0FF
:104D6000A6C014F0A7C015F0196A186A176A000ED9
:104D70001DEC02F0226EA4C012F0A5C013F0A6C074
:104D800014F0A7C015F0196A186A176A010E1DEC15
:104D900002F0266E22C012F0265040EC02F0D8A499
:104DA00038EF2DF0A4C05DF05CEF2EF0100E1E6EFB
:104DB0001F6A206A216AA4C016F0A5C017F0A6C019
:104DC00018F0A7C019F090EC02F0B86F1BC0B9F052
:104DD0001CC0BAF01DC0BBF05CEF2EF096EC16F0D4
:104DE000660E91EC00F0690E91EC00F0720E91EC01
:104DF00000F06D0E91EC00F0770E91EC00F0610E7A
:104E000091EC00F0720E91EC00F0650E91EC00F068
:104E10003D0E91EC00F0030E036E200E0A6E010EA3
:104E20000B6EDA6A870E36EC01F00D0E91EC00F095
:104E3000640E91EC00F0720E91EC00F0690E91ECB2
:104E400000F0760E91EC00F0650E91EC00F03D0E56
:104E500091EC00F0000E80B0010E6CEC00F00D0E35
:104E600091EC00F06D0E91EC00F06F0E91EC00F003
:104E7000640E91EC00F0650E91EC00F03D0E91ECAB
:104E800000F072516CEC00F00D0E91EC00F0660E2B
:104E900091EC00F0650E91EC00F0650E91EC00F0E5
:104EA000640E91EC00F0620E91EC00F0610E91EC5A
:104EB00000F0630E91EC00F06B0E91EC00F03D0EF3
:104EC00091EC00F067516CEC00F00D0E91EC00F0ED
:104ED000640E91EC00F0650E91EC00F06C0E91EC1C
:104EE00000F0610E91EC00F0790E91EC00F03D0EB7
:104EF00091EC00F04AC01BF049506DEC00F00D0E33
:104F000091EC00F0700E91EC00F06F0E91EC00F05F
:104F1000730E91EC00F0690E91EC00F0740E91ECC0
:104F200000F0690E91EC00F06F0E91EC00F06E0E47
:104F300091EC00F03D0E91EC00F0036AA8C012F075
:104F4000A9C013F0AAC014F0ABC015F0100E166E75
:104F5000176A186A196A4CEC02F0226E13C023F02B
:104F600014C024F015C025F022C01AF023C01BF095
:104F700024C01CF025C01DF0200E0A6E010E0B6E21
:104F80003FEC01F00D0E91EC00F0730E91EC00F08F
:104F9000650E91EC00F0740E91EC00F0700E91EC47
:104FA00000F06F0E91EC00F0690E91EC00F06E0EC7
:104FB00091EC00F0740E91EC00F03D0E91EC00F0DD
:104FC000036AB0C012F0B1C013F0B2C014F0B3C0A5
:104FD00015F0100E166E176A186A196A4CEC02F07A
:104FE000226E13C023F014C024F015C025F022C097
:104FF0001AF023C01BF024C01CF025C01DF0200EA9
:105000000A6E010E0B6E3FEC01F00D0E91EC00F0FC
:105010006D0E91EC00F0690E91EC00F06E0E91ECCB
:1050200000F0700E91EC00F06F0E91EC00F0730E3A
:1050300091EC00F03D0E91EC00F0036AA0C012F07C
:10504000A1C013F0A2C014F0A3C015F0100E166E8C
:10505000176A186A196A4CEC02F0226E13C023F02A
:1050600014C024F015C025F022C01AF023C01BF094
:1050700024C01CF025C01DF0200E0A6E010E0B6E20
:105080003FEC01F00D0E91EC00F06D0E91EC00F094
:10509000610E91EC00F0780E91EC00F0700E91EC46
:1050A00000F06F0E91EC00F0730E91EC00F03D0EED
:1050B00091EC00F0036A9CC012F09DC013F09EC0FA
:1050C00014F09FC015F0100E166E176A186A196A50
:1050D0004CEC02F0226E13C023F014C024F015C073
:1050E00025F022C01AF023C01BF024C01CF025C0FC
:1050F0001DF0200E0A6E010E0B6E3FEC01F00D0E3E
:1051000091EC00F06C0E91EC00F0690E91EC00F067
:105110006D0E91EC00F0690E91EC00F0740E91ECC4
:1051200000F03D0E91EC00F0000E46B0010E6CEC6C
:1051300000F00D0E91EC00F0670E91EC00F06F0E98
:1051400091EC00F0610E91EC00F06C0E91EC00F02F
:105150003D0E91EC00F0036A90C012F091C013F084
:1051600092C014F093C015F0100E166E176A186AEC
:10517000196A4CEC02F0226E13C023F014C024F024
:1051800015C025F022C01AF023C01BF024C01CF06B
:1051900025C01DF0200E0A6E010E0B6E3FEC01F0D3
:1051A0000D0E91EC00F0730E91EC00F0740E91EC8A
:1051B00000F0650E91EC00F0700E91EC00F0730EB3
:1051C00091EC00F03D0E91EC00F0036AB8C012F0D3
:1051D000B9C013F0BAC014F0BBC015F0100E166EB3
:1051E000176A186A196A4CEC02F0226E13C023F099
:1051F00014C024F015C025F022C01AF023C01BF003
:1052000024C01CF025C01DF0200E0A6E010E0B6E8E
:105210003FEC01F00D0E91EC00F0740E91EC00F0FB
:10522000720E91EC00F0690E91EC00F0670E91ECBB
:1052300000F0670E91EC00F0650E91EC00F0720E3C
:1052400091EC00F0730E91EC00F03D0E91EC00F04B
:105250004CC01BF04B506DEC00F00D0E91EC00F0CB
:10526000740E91EC00F0690E91EC00F06D0E91EC73
:1052700000F0650E91EC00F03D0E91EC00F0020E96
:10528000036E8CC01AF01B6A1C6A1D6A200E0A6E1F
:10529000010E0B6E40EC01F03A0E91EC00F0020EA4
:1052A000036E8BC01AF01B6A1C6A1D6A200E0A6E00
:1052B000010E0B6E40EC01F03A0E91EC00F0020E84
:1052C000036E8AC01AF01B6A1C6A1D6A200E0A6EE1
:1052D000010E0B6E40EC01F00D0E91EC00F0640E2F
:1052E00091EC00F06F0E91EC00F0740E91EC00F078
:1052F000690E91EC00F06D0E91EC00F0650E91ECF2
:1053000000F03D0E91EC00F0020E036E86C01AF024
:105310001B6A1C6A1D6A200E0A6E010E0B6E40ECA1
:1053200001F03A0E91EC00F0020E036E85C01AF007
:105330001B6A1C6A1D6A200E0A6E010E0B6E40EC81
:1053400001F03A0E91EC00F0020E036E84C01AF0E8
:105350001B6A1C6A1D6A200E0A6E010E0B6E40EC61
:1053600001F00D0E91EC00F06D0E91EC00F0610E6D
:1053700091EC00F0740E91EC00F0630E91EC00F0F3
:10538000680E91EC00F03D0E91EC00F082516CEC57
:1053900000F00D0E91EC00F0720E91EC00F06F0E2B
:1053A00091EC00F0740E91EC00F0610E91EC00F0C5
:1053B000740E91EC00F0650E91EC00F03D0E91EC56
:1053C00000F0036AACC01AF0ADC01BF0AEC01CF018
:1053D000AFC01DF0200E0A6E010E0B6E3FEC01F007
:1053E0000D0E91EC00F0610E91EC00F0740E91EC5A
:1053F00000F06C0E91EC00F0690E91EC00F06D0E77
:1054000091EC00F0690E91EC00F0740E91EC00F05C
:105410003D0E91EC00F05D506CEC00F00D0E91EC47
:1054200000F0730E91EC00F0740E91EC00F0650E3C
:1054300091EC00F0700E91EC00F0200E91EC00F079
:10544000730E91EC00F0740E91EC00F0790E91EC7B
:1054500000F06C0E91EC00F0650E91EC00F03D0E4A
:1054600091EC00F07C516CEC00F00D0E91EC00F032
:105470005CEF2EF00D0E91EC00F01200100E1E6E7F
:105480001F6A206A216AA4C016F0A5C017F0A6C042
:1054900018F0A7C019F090EC02F0226E1BC023F0A8
:1054A0001CC024F01DC025F0A8512226A95123229A
:1054B000AA512422AB51252222C012F023C013F09E
:1054C00024C014F025C015F0A3C019F0A2C018F034
:1054D000A1C017F0A05117EC02F0226E100E1E6E44
:1054E0001F6A206A216AA4C016F0A5C017F0A6C0E2
:1054F00018F0A7C019F090EC02F0266E1BC027F040
:105500001CC028F01DC029F0A8512626A951272229
:10551000AA512822AB51292226C012F027C013F02D
:1055200028C014F029C015F09FC019F09EC018F0D3
:105530009DC017F09C510BEC02F0266E22502610F5
:10554000D8A438EF2DF0100E1E6E1F6A206A216A53
:10555000A4C016F0A5C017F0A6C018F0A7C019F097
:1055600090EC02F0226E1BC023F01CC024F01DC082
:1055700025F02250B0272350B1232450B2232550C8
:10558000B3234CEC2EF073EC34F05CEF2EF0100EE5
:105590001E6E1F6A206A216AA4C016F0A5C017F00B
:1055A000A6C018F0A7C019F090EC02F0226E1BC044
:1055B00023F01CC024F01DC025F022C012F023C02F
:1055C00013F024C014F025C015F0A3C019F0A2C038
:1055D00018F0A1C017F0A05117EC02F0226E100EC7
:1055E0001E6E1F6A206A216AA4C016F0A5C017F0BB
:1055F000A6C018F0A7C019F090EC02F0266E1BC0F0
:1056000027F01CC028F01DC029F026C012F027C0CA
:1056100013F028C014F029C015F09FC019F09EC0E7
:1056200018F09DC017F09C510BEC02F0266E225032
:105630002610D8A438EF2DF0100E1E6E1F6A206AB7
:10564000216AA4C016F0A5C017F0A6C018F0A7C024
:1056500019F090EC02F0B06F1BC0B1F01CC0B2F0BA
:105660001DC0B3F04CEC2EF073EC34F05CEF2EF078
:10567000A4C012F0A5C013F0A6C014F0A7C015F086
:10568000196A186A176A020E17EC02F0D8A438EFEC
:105690002DF0A4C049F0A5C04AF04CEC2EF05CEF10
:1056A0002EF0A4C012F0A5C013F0A6C014F0A7C03D
:1056B00015F0196A186A176A090E0BEC02F0226ECF
:1056C000A4C012F0A5C013F0A6C014F0A7C015F036
:1056D000196A186A176A000E17EC02F0266E22503B
:1056E0002610D8A438EF2DF0A4C072F0A8C0B0F0F6
:1056F000A9C0B1F0AAC0B2F0ABC0B3F04CEC2EF030
:105700005CEF2EF0A86BA96BAA6BAB6BB06BB16BA7
:10571000B26BB36B4CEC2EF05CEF2EF0A4C012F029
:10572000A5C013F0A6C014F0A7C015F0196A186A36
:10573000176A010E17EC02F0226EA4C012F0A5C089
:1057400013F0A6C014F0A7C015F0196A186A270E46
:10575000176E100E0BEC02F0266E22502610D8A405
:1057600038EF2DF0A4C04BF0A5C04CF04CEC2EF05F
:105770005CEF2EF0100E1E6E1F6A206A216AA4C014
:1057800016F0A5C017F0A6C018F0A7C019F090EC4D
:1057900002F0906F1BC091F01CC092F01DC093F0FE
:1057A0004CEC2EF05CEF2EF0A4C012F0A5C013F06C
:1057B000A6C014F0A7C015F0196A186A176A000E7F
:1057C0001DEC02F0226EA4C012F0A5C013F0A6C01A
:1057D00014F0A7C015F0196A186A176A010E1DECBB
:1057E00002F0266E22C012F0265040EC02F0D8A43F
:1057F00038EF2DF0A4C012F0A5C013F0A6C014F02D
:10580000A7C015F0196A186A176A000E1DEC02F09D
:10581000226E72510708D8A4E868FF0A266E22C0DB
:1058200012F0265040EC02F0D8A438EF2DF0F2EC44
:1058300036F0A4C067F04CEC2EF05CEF2EF0A4C064
:1058400012F0A5C013F0A6C014F0A7C015F0196A95
:10585000186A176A170E0BEC02F0226EA4C012F041
:10586000A5C013F0A6C014F0A7C015F0196A186AF5
:10587000176A000E17EC02F0266E22502610D8A4EC
:1058800038EF2DF096EC16F0A4C08CF0E6EC15F095
:105890004CEC2EF05CEF2EF0A4C012F0A5C013F07B
:1058A000A6C014F0A7C015F0196A186A176A3B0E53
:1058B0000BEC02F0226EA4C012F0A5C013F0A6C03B
:1058C00014F0A7C015F0196A186A176A000E17ECD1
:1058D00002F0266E22502610D8A438EF2DF096EC58
:1058E00016F0A4C08BF0E6EC15F04CEC2EF05CEF5B
:1058F0002EF0A4C012F0A5C013F0A6C014F0A7C0EB
:1059000015F0196A186A176A3B0E0BEC02F0226E4A
:10591000A4C012F0A5C013F0A6C014F0A7C015F0E3
:10592000196A186A176A000E17EC02F0266E2250E8
:105930002610D8A438EF2DF096EC16F0A4C08AF00B
:10594000E6EC15F04CEC2EF05CEF2EF0A4C012F05B
:10595000A5C013F0A6C014F0A7C015F0196A186A04
:10596000176A170E0BEC02F0226EA4C012F0A5C04D
:1059700013F0A6C014F0A7C015F0196A186A176AC8
:10598000000E17EC02F0266E22502610D8A438EF35
:105990002DF0A4C086F04CEC2EF05CEF2EF0A4C0ED
:1059A00012F0A5C013F0A6C014F0A7C015F0196A34
:1059B000186A176A020E0BEC02F0D8A438EF2DF02B
:1059C000A4C082F04CEC2EF05CEF2EF0A4C012F0DC
:1059D000A5C013F0A6C014F0A7C015F0196A186A84
:1059E000176A3B0E0BEC02F0226EA4C012F0A5C0A9
:1059F00013F0A6C014F0A7C015F0196A186A176A48
:105A0000000E17EC02F0266E22502610D8A438EFB4
:105A10002DF0A4C085F04CEC2EF05CEF2EF0A4C06D
:105A200012F0A5C013F0A6C014F0A7C015F0196AB3
:105A3000186A176A3B0E0BEC02F0226EA4C012F03B
:105A4000A5C013F0A6C014F0A7C015F0196A186A13
:105A5000176A000E17EC02F0266E22502610D8A40A
:105A600038EF2DF0A4C084F04CEC2EF05CEF2EF05B
:105A7000450E91EC00F0520E91EC00F0520E91ECBC
:105A800000F00D0E91EC00F0410E91EC00F0720E62
:105A900091EC00F0670E91EC00F0750E91EC00F0C7
:105AA0006D0E91EC00F0650E91EC00F06E0E91EC35
:105AB00000F0740E91EC00F0200E91EC00F06F0EEF
:105AC00091EC00F0750E91EC00F0740E91EC00F08A
:105AD000200E91EC00F06F0E91EC00F0660E91EC50
