:1000000010C015C014C013C012C011C010C00FC062
:100010000EC00DC00CC00BC00AC009C008C007C08C
:1000200006C011241FBECFEDCDBF02D02BC0E8CF3C
:10003000D69AB898C09A80E88FBD81E18EBD8FEFC7
:100040009FE895BD84BD80E49FE19BBD8ABD28ECFF
:1000500030E060E47FE140ED50E2B09BFECF88EEFF
:1000600093E0F9013197F1F70197D9F77BBD6ABDAC
:1000700088EE93E0F9013197F1F70197D9F75BBD6D
:080080004ABDEBCFF894FFCF5D
:00000001FF
